:020000040800F2
:1000000000800120ED2A00085D0900085F09000852
:100010006109000863090008650900080000000084
:100020000000000000000000000000006709000858
:1000300069090008000000006B0900086D0900084C
:100040003D2B00083D2B00083D2B00083D2B0008F0
:100050003D2B00083D2B00083D2B00083D2B0008E0
:100060003D2B00083D2B00083D2B00083D2B0008D0
:100070003D2B00083D2B00083D2B00083D2B0008C0
:100080003D2B00083D2B00083D2B00083D2B0008B0
:100090003D2B00083D2B00083D2B00083D2B0008A0
:1000A0003D2B00083D2B00083D2B00083D2B000890
:1000B0003D2B00083D2B00083D2B00083D2B000880
:1000C0003D2B00083D2B00083D2B00083D2B000870
:1000D0003D2B00083D2B00083D2B00083D2B000860
:1000E0003D2B00083D2B00083D2B00083D2B000850
:1000F0003D2B00083D2B00083D2B00083D2B000840
:100100003D2B00083D2B00083D2B00083D2B00082F
:100110003D2B00083D2B00083D2B00083D2B00081F
:100120003D2B00083D2B00083D2B00083D2B00080F
:100130003D2B00083D2B00083D2B00083D2B0008FF
:100140003D2B00083D2B00083D2B00083D2B0008EF
:100150003D2B00083D2B00083D2B00083D2B0008DF
:100160003D2B00083D2B00083D2B00083D2B0008CF
:100170003D2B00083D2B00083D2B0008000000002F
:080180003D2B00083D2B000897
:100188000348044B834202D0034B03B1184770471E
:10019800100000201000002000000000054806495B
:1001A800091A891001EBD171491002D0034B03B130
:1001B80018477047100000201000002000000000C1
:1001C80010B5064C237843B9FFF7DAFF044B13B197
:1001D8000448AFF300800123237010BD10000020F5
:1001E80000000000402B000808B5044B1BB104496F
:1001F8000448AFF30080BDE80840CFE700000000E6
:1002080014000020402B000870B50D4E0D4D761BD4
:10021800B61006D00024013455F8043B9847A6428E
:10022800F9D1094E094D761B02F086FCB61006D0AE
:100238000024013455F8043B9847A642F9D170BD13
:10024800A82B0008A82B0008AC2B0008A82B000836
:10025800F0B4860746D0541E002A3CD0CAB20346E2
:1002680002E014F1FF3436D303F8012B9D07F8D1CF
:10027800032C29D9CDB245EA05250F2C45EA0545B9
:1002880033D9A4F11006360903F1200707EB061746
:1002980003F1100242E9045542E902551032BA420C
:1002A800F8D1721C14F00C0F03EB021204F00F06C5
:1002B80013D0331F23F003030433134442F8045BC1
:1002C8009342FBD106F003042CB1C9B21C4403F8D5
:1002D800011B9C42FBD1F0BC704734461346002CEE
:1002E800F3D1F8E714460346C2E71A462646E0E784
:1002F80053B94AB9002908BF00281CBF4FF0FF3185
:100308004FF0FF3000F074B9ADF1080C6DE904CE80
:1003180000F006F8DDF804E0DDE9022304B07047D8
:100328002DE9F047089E04468846002B40F085805A
:100338008A42154648D9B2FA82F24AB1C2F1200778
:1003480001FA02F320FA07F7954047EA03089440B8
:100358004FEA154E230CB8FBFEF71FFA85FC0EFB7F
:10036800178843EA084307FB0CF1994209D9EB18AF
:1003780007F1FF3080F0E380994240F2E080023FCD
:100388002B445B1AA4B2B3FBFEF00EFB103344EA15
:10039800034400FB0CFCA44509D92C1900F1FF33D8
:1003A80080F0CB80A44540F2C88002382C4440EA53
:1003B8000740A4EB0C0400271EB1D4400023C6E973
:1003C80000433946BDE8F087002A53D0B2FA82F2DA
:1003D800002A40F0B680491B4FEA154E1FFA85F8EF
:1003E8000127B1FBFEFC230C0EFB1C1143EA014361
:1003F80008FB0CF1994207D9EB180CF1FF3002D237
:10040800994200F2EC808446591AA3B2B1FBFEF07F
:100418000EFB101443EA044408FB00F8A04507D972
:100428002C1900F1FF3302D2A04500F2DC801846F7
:10043800A4EB080440EA0C40BEE78B4208D9002E22
:1004480078D00027C6E9000138463946BDE8F0876C
:10045800B3FA83F77FB98B4202D3824200F2BD80A0
:10046800841A61EB030301209846002EA9D0C6E93F
:100478000048A6E7FFDEC7F12005BB4022FA05FCCD
:100488004CEA030C01FA07F420FA05F821FA05F3FF
:100498004FEA1C4E48EA0404B3FBFEF9210C0EFB9C
:1004A80019331FFA8CF841EA034309FB08FA9A4505
:1004B80002FA07F200FA07F10BD91CEB030309F162
:1004C800FF3080F088809A4540F28580A9F10209C2
:1004D8006344A3EB0A03A4B2B3FBFEF00EFB103394
:1004E80044EA034400FB08F8A04508D91CEB0404BF
:1004F80000F1FF336BD2A04569D90238644440EA61
:100508000940A4EB0804A0FB02894C45C6464B46AB
:1005180054D351D0002E69D0B1EB0E0264EB030422
:1005280004FA05F522FA07F3FC401D43C6E9005416
:10053800002746E73746304643E7184637E7074679
:100548001FE7C2F1200320FA03F7954001FA02F0F1
:1005580021FA03F34FEA154E3843010CB3FBFEF7BB
:100568001FFA85F80EFB173341EA034107FB08F32E
:100578008B4204FA02F407D9691807F1FF3C28D224
:100588008B4226D9023F2944CB1A81B2B3FBFEF035
:100598000EFB103341EA034100FB08F38B4207D9F5
:1005A800691800F1FF3C10D28B420ED90238294459
:1005B800C91A40EA074714E74145ABD2B8EB020E27
:1005C80069EB0C0201381346A4E76046F0E71846C9
:1005D80095E76746D8E781467BE7384645E7ACF1BB
:1005E800020C2B4410E702382C4421E73746E8E692
:1005F800704700BF10B58AB000240594069407948C
:1006080008940994214BDA6C42F00402DA64DA6C3B
:1006180002F004020192019ADA6C42F08002DA6474
:10062800DA6C02F080020292029ADA6C42F001025D
:10063800DA64DA6C02F001020392039ADA6C42F08F
:100648000202DA64DB6C03F002030493049B224683
:1006580020214FF0904000F0FBFE4FF4005305932B
:100668004FF404130693079405A9094800F006FE01
:1006780020230593012306930794089405A94FF0B6
:10068800904000F0FBFD0AB010BD00BF0010024012
:100698000008004872B6FEE700B58BB00023079348
:1006A8000893099301930293039304930593069384
:1006B8001C481D4A026043608360C36003610422D2
:1006C8004261037643760122C26180F8203083625A
:1006D800C36280F83030436380F8383000F0A0F906
:1006E800D0B90023079307A90E4800F0DDFCA8B98C
:1006F8000E4B019306230293002303937F22049257
:100708000422059206930DEB0201064800F082FAD6
:1007180030B90BB05DF804FBFFF7BCFFFFF7BAFF79
:10072800FFF7B8FF2C000020000004502000F01450
:1007380008B50B480B4B03604FF4E13343600023CB
:100748008360C36003610C2242618361C3610362F9
:10075800436202F095F900B908BDFFF79BFF00BF9F
:10076800900000200044004000B597B044220021CA
:1007780005A8FFF76DFD00230093019302930393EF
:1007880004934FF4007000F071FE20BB0223059320
:100798004FF480720892102209920F93109301224D
:1007A80011920A221292072213921493159305A804
:1007B80000F044FF88B90F2300930323019300231B
:1007C8000293039304930421684601F049FA30B96F
:1007D80017B05DF804FBFFF75DFFFFF75BFFFFF75E
:1007E80059FF08B500F0F4F8FFF7BEFFFFF702FF66
:1007F800FFF752FFFFF79CFFFEE7000082B00A4BAD
:100808001A6E42F001021A661A6E02F00102009294
:10081800009A9A6D42F080529A659B6D03F080535E
:100828000193019B02B070470010024010B5AAB0B6
:100838000446002125912691279128912991882203
:1008480003A8FFF705FD22681E4B9A4201D02AB083
:1008580010BD4FF4804303934FF08053219302233C
:100868000493012205920822069207220792089310
:1008780009934FF080730A9303A801F03DFCF0B987
:10088800114BDA6C42F40052DA64DA6C02F400526A
:100898000192019ADA6C42F00102DA64DB6C03F02F
:1008A80001030293029B012325930B232693002324
:1008B800279325A94FF0904000F0E0FCC7E7FFF729
:1008C800E9FEDDE7000004500010024010B5AAB0B0
:1008D8000446002125912691279128912991882263
:1008E80003A8FFF7B5FC2268184B9A4201D02AB03A
:1008F80010BD0223039303A801F0FEFB10BB144BA9
:100908009A6D42F400329A659A6D02F400320192AF
:10091800019ADA6C42F00102DA64DB6C03F001033D
:100928000293029B0C2325930223269300232793EB
:10093800032328930723299325A94FF0904000F01B
:100948009DFCD4E7FFF7A6FED9E700BF00440040AE
:1009580000100240FEE7FEE7FEE7FEE7FEE770470D
:100968007047704708B500F049F808BD034AD2F847
:10097800883043F47003C2F88830704700ED00E017
:10098800104B1B780BB90120704710B504464FF483
:100998007A70B0FBF3F30C4A1068B0FBF3F000F088
:1009A80057FC68B90F2C01D901200AE00022214622
:1009B8004FF0FF3000F018FC044B1C60002000E0F2
:1009C800012010BD040000200000002008000020C5
:1009D80010B5094A136843F480731360032000F0CC
:1009E800F1FB0020FFF7CCFF10B10124204610BD19
:1009F8000446FFF703FFF9E700200240034B1B788A
:100A0800034A11680B441360704700BF04000020BC
:100A180014010020014B1868704700BF1401002022
:100A280030B583B000230193002800F0E580044628
:100A3800436D3BB323689A6812F0005F05D09A684B
:100A480022F0204222F03F029A602268936813F055
:100A5800805F1ED1936823F0104323F03F0343F0D7
:100A680080539360654B1B689B09654AA2FB03236F
:100A78009B0901335B000193019B53B1019B013B2F
:100A88000193F9E7FFF7D2FE0023A36584F85030FD
:100A9800D0E72268936813F0805F40F08480636D2C
:100AA80043F010036365A36D43F00103A3650120C0
:100AB800936813F0040300D00123616D11F0100F47
:100AC80040F09380002B40F09080636D23F4817395
:100AD80043F002036365936813F0010F16D1494B85
:100AE8009A6802F0010203F580739B6803F0010322
:100AF8001343454A926802F00102134306D1636822
:100B080042498A6822F47C1213438B60627E636BCD
:100B180043EA4233E2681343A268134394F820205F
:100B280043EA0243012A40D0A26A22B102F4707259
:100B3800E16A0A4313432168CD68354A2A401343C2
:100B4800CB6021688B6813F0040300D001238A6806
:100B580012F0080200D00122B3B9AAB9227E94F893
:100B680030305B0043EA8232CB6823F4804323F0C1
:100B780002031343CB6094F83830012B1AD0226853
:100B8800136923F0010313612369012B24D0226820
:100B9800136B23F00F031363636D23F0030343F018
:100BA8000103636526E0002082E7626A013A43EAAE
:100BB8004243B9E721680B6923F4FF6323F0040378
:100BC800E26B256C2A43656C2A43A56C2A431343C0
:100BD80043F001030B61D7E721680B6B23F00F0388
:100BE800E269013A13430B63D6E7636D43F01003E0
:100BF8006365012003B030BD0120FBE70000002041
:100C0800632D3E0500000450000204500003045008
:100C180007C0F0FFF0B482B00022019290F8502093
:100C2800012A00F036820346012280F8502002682B
:100C3800926812F0040F0AD0426D42F02002426519
:100C48000120002283F8502002B0F0BC70474A68A7
:100C5800052A09D8023A032A00F28E80DFE802F05A
:100C6800028285880C224A601E684D680C683036FE
:100C78002A0A920002F00C02B05805F01F051F273F
:100C8800AF4020EA0700C4F38464AC402043B0506E
:100C98001C68A26812F0040200D00122A06810F0BB
:100CA800080000D0012052BB48BB0E688D68143480
:100CB800720E920002F00402A058C6F304560727E9
:100CC800B74020EA0700B5402843A0504C6918688F
:100CD800C268C2F3C102520004FA02F20D69042D7F
:100CE8004DD00E68603050F82570AC4C3C4006F092
:100CF800F8463243144344F0004440F8254018684D
:100D0800826812F0010F16D10A68CD68D0F8B04099
:100D1800C2F3120624EA060405F01806A04DF540B1
:100D28002A40C2F312022243C0F8B020C8689D4A84
:100D3800904200F08B800A689B490A4200F0A58126
:100D48009A49896801F0E0749948824200F0478125
:100D58009848824200F06E819748824200F0828172
:100D680000206EE712224A607EE718224A607BE77D
:100D78004FF480724A6077E706224A6074E7026E91
:100D8800046EC4F384640A68C2F312057DBBC2F31F
:100D98008462944233D01C68626E606EC0F38460D3
:100DA8000A68C2F312057DBBC2F38462904233D055
:100DB8001C68A26EA06EC0F384600A68C2F31205B4
:100DC8007DBBC2F38462904233D01C68E26EE06E51
:100DD800C0F384600A68C2F312057DBBC2F3846263
:100DE80090428CD1E26E22F00042E26687E792FAE6
:100DF800A2F212B1B2FA82F2CBE72022C9E7026E60
:100E080022F000420266C6E792FAA2F212B1B2FAE2
:100E180082F2CBE72022C9E7626E22F000426266C6
:100E2800C6E792FAA2F212B1B2FA82F2CBE7202216
:100E3800C9E7A26E22F00042A266C6E792FAA2F2C1
:100E480012B1B2FA82F2CBE72022C9E71D680A681C
:100E5800C2F31206002E35D1900E013000F01F00AB
:100E680009288CBF00200120002862D0002E38D12C
:100E7800940E0134A40604F0F844002E3DD1900EDF
:100E8800013000F01F070120B8400443002E42D172
:100E9800920E013202F01F0202EB420212052243B7
:100EA8008C681435500E800000F004002E58C2F3F0
:100EB80004520727974026EA070604FA02F232434B
:100EC8002A5038E792FAA2F048B1B0FA80F001301F
:100ED80000F01F0009288CBF00200120C4E7202053
:100EE800F5E792FAA2F434B1B4FA84F40134A40612
:100EF80004F0F844C1E72024F8E792FAA2F040B1E0
:100F0800B0FA80F0013000F01F00012707FA00F066
:100F1800BBE72020F6E792FAA2F242B1B2FA82F2D7
:100F2800013202F01F0202EB42021205B7E720224B
:100F3800F6E7CEB9940E0134A40604F0F844FEB9DD
:100F4800900E013000F01F070120B8400443AEBBEB
:100F5800900E013000F01F0000EB40021E3A12050F
:100F680042F0007222439BE792FAA2F434B1B4FA39
:100F780084F40134A40604F0F844E0E72024F8E7F8
:100F880092FAA2F040B1B0FA80F0013000F01F00F0
:100F9800012707FA00F0D9E72020F6E700F0FF0361
:100FA800FFFF070000007F40000008800003045096
:100FB800000052C7000084CB0100008092FAA2F220
:100FC8005AB1B2FA82F0013000F01F0000EB400283
:100FD8001E3A120542F00072C4E72020F3E711F42C
:100FE800000F7FF4B5AE1A682B498A4205D001F587
:100FF80000718A4201D0002023E644F40004274906
:101008008A6822F0E07214438C60254A12689209BB
:101018002449A1FB02129209013202EB420291001B
:10102800019102E0019A013A0192019A002AF9D14C
:10103800002006E611F0807F7FF48EAE1A6816490C
:101048008A4205D001F500718A4201D00020F8E5F6
:1010580044F080721148816821F0E0710A4382608F
:101068000020EEE511F4800F11D119680A4A914267
:1010780001D00020E5E544F480020848816821F0A9
:10108800E0710A4382600020DBE50020D9E50020FA
:10109800D7E50220D8E500BF000004500003045043
:1010A80000000020632D3E0590F85020012A00F032
:1010B800818030B49AB00346012280F85020002283
:1010C8001692179200683C4A904239D00022019249
:1010D800019A002A38D0926812F0040200D0012246
:1010E800806810F0040F56D1002A54D10A68002AEB
:1010F80033D0324CA26822F46042486893F83050EA
:1011080040EA45300243A2602B4A906800F0010093
:1011180002F58072926802F0010202432848806852
:1011280000F00100024341D1A26822F4716222F06A
:101138000F020868896808430243A26000202FE074
:1011480002F580720192C3E75A6D42F020025A6597
:10115800002283F85020012025E018498A6822F4EB
:1011680060428A60144A916801F0010102F58072B8
:10117800926802F001020A431149896801F00101ED
:101188000A4315D10D498A6822F4716222F00F02D0
:101198008A60002004E05A6D42F020025A6501205E
:1011A800002283F850201AB030BC70470020F7E7BF
:1011B8000020F5E7022070470000045000030450A7
:1011C80000020450074AD36823F4E0631B041B0C95
:1011D800000200F4E060184340F0BF6040F40030C3
:1011E800D060704700ED00E030B4174BDB68C3F304
:1011F8000223C3F10704042C28BF04241D1D062D57
:1012080001D9033B00E000234FF0FF3505FA04F451
:1012180021EA0401994005FA03F322EA030319437A
:10122800002809DB0901C9B200F1604000F56140FE
:1012380080F8001330BC704700F00F000901C9B2F4
:10124800024B1954F6E700BF00ED00E014ED00E092
:101258000138B0F1807F0AD2064B5860064AF02167
:1012680082F823100020986007221A607047012036
:10127800704700BF10E000E000ED00E0F0B482B07D
:10128800002364E086685F000325BD4026EA050662
:10129800CD68BD4035438560466826EA04064D683A
:1012A800C5F300159D40354345605EE0C66A26EAF1
:1012B8000406C5F3C0049C403443C4625AE0DD0808
:1012C800083550F8257003F00704A6000F24B44031
:1012D80027EA04070C69B4403C4340F825405DE028
:1012E800062400E00024B4403C430235544E46F83E
:1012F8002540544CA568D44304EA05064F6817F402
:10130800801F01D042EA05064E4DAE60ED6804EA42
:1013180005064F6817F4001F01D042EA0506494D3B
:10132800EE606D6804EA05064F6817F4003F01D0C7
:1013380042EA0506434D6E602D682C404E6816F44F
:10134800803F01D042EA05043E4A146001330A682E
:1013580032FA03F470D001249C402240F6D04D6844
:1013680005F00305013D012D8CD94D6805F00306F4
:10137800032E9BD04C6804F00304032C09D0C568E5
:101388005E000324B44025EA04058C68B4402C436D
:10139800C4604C6804F00304022C90D005685E0019
:1013A8000324B44025EA04054C6804F00304B4405F
:1013B8002C4304604C6814F4403FC7D0224C256E7F
:1013C80045F001052566246E04F001040194019C92
:1013D8009D08AE1C1A4C54F8267003F00304A600AE
:1013E8000F24B44027EA0407B0F1904F3FF47AAFD6
:1013F800164CA04216D004F58064A04214D004F51F
:101408008064A04212D004F58064A04210D004F594
:101418008064A0420ED004F58064A0423FF460AF1F
:10142800072460E701245EE702245CE703245AE707
:10143800042458E7052456E702B0F0BC704700BF03
:101448000000014000040140001002400004004870
:101458000AB181617047816270470000024B1868C9
:1014680000F4C060704700BF00700040B0F5007F16
:101478000FD01E4B1B6803F4C063B3F5806F33D0E5
:101488001A4A136823F4C06343F48063136000208E
:101498007047164B1B6803F4C063B3F5007F1FD079
:1014A800124A136823F4C06343F400731360104BAB
:1014B8001A68322303FB02F30E4AA2FB03239B0C98
:1014C80001330A4A526912F4806F02D00BB1013B12
:1014D800F7E7064B5B6913F4806F03D10020704770
:1014E80000207047032070470020704700700040BC
:1014F8000000002083DE1B4330B583B00546204B37
:101508009B6D13F0805F0BD0FFF7A8FFB0F5007F4D
:1015180017D0802D1FD82DD0702D2DD000211BE085
:10152800174CA36D43F08053A365A36D03F080535C
:101538000193019BFFF792FFA36D23F08053A365EE
:10154800E4E7802D03D9A02D03D9022104E000216E
:1015580002E0012100E003210A4A136823F007038F
:101568000B431360136803F007038B4206D1002076
:1015780003B030BD0221EFE70121EDE70120F7E7D5
:101588000010024000200240284A9368D26802F006
:10159800030213F00C030AD00C2B06D0042B1FD027
:1015A800082B20D00020024610E0012AF6D11F4A5D
:1015B800126812F0080F0CD11C4AD2F89420C2F31A
:1015C80003221B4951F8222043B100200C2B0DD0D7
:1015D8007047164A1268C2F30312F2E71046F5E79D
:1015E80014480022F2E714480022EFE70F4BDB68AB
:1015F80003F00303022B15D0032B15D00B4BD8682F
:10160800C0F302100130D968C1F3062102FB01F2D0
:10161800B2FBF0F2D868C0F3416001304000B2FB81
:10162800F0F0D5E7034AE9E7034AE7E7001002408C
:10163800702B00080024F40000127A00002800F043
:10164800F682F0B583B00446AF4B9D6805F00C05F3
:10165800DE6806F00306036813F0100F5BD0E5B1EF
:101668000C2D18D0A369002B00F0BC80A64A136883
:1016780043F001031360FFF7CDF90746A24B1B683F
:1016880013F0020F40F09B80FFF7C4F9C01B02283B
:10169800F4D90323D7E2012EE4D19B4B1B6813F046
:1016A800020F03D0A369002B00F0C482206A964B76
:1016B8001B6813F0080F5CD0934B1B6803F0F00312
:1016C80098425DD8904B1A6842F008021A601A686E
:1016D80022F0F002216A0A431A605A6822F47F4213
:1016E800E16942EA01225A60002D61D0FFF74CFF00
:1016F800854B9B68C3F30313844AD35C03F01F0331
:10170800D840834B1860834B1868FFF739F90346B4
:10171800002840F09882236813F0010F00F08180C0
:10172800082D75D00C2D71D06368B3F5803F00F09B
:101738009780B3F5A02F00F09980734B1A6822F4B4
:1017480080321A601A6822F480221A606368002BBB
:1017580000F09980FFF75EF907466B4B1B6813F49E
:10176800003F5ED1FFF756F9C01B6428F5D9032363
:1017780069E2654BD3F894301B0903F0F0039FE747
:10178800FFF7BAFE002840F057825F4B1A6842F014
:1017980008021A601A6822F0F002216A0A431A60E5
:1017A8005A6822F47F42E16942EA01225A609DE7C1
:1017B800206AFFF7A1FE002898D0012343E2524B8C
:1017C8001A6842F008021A601A6822F0F002216AC8
:1017D8000A431A605A6822F47F42E16942EA012208
:1017E8005A6098E7484A136823F001031360FFF72B
:1017F80011F90746444B1B6813F0020F8BD0FFF713
:1018080009F9C01B0228F5D903231CE2032E8BD14A
:101818003D4B1B6813F4003F03D06368002B00F0B6
:101828000D82236813F0020F4FD0042D3CD00C2DED
:1018380038D0E368002B78D0334A136843F48073B8
:101848001360FFF7E7F806462F4B1B6813F4806F09
:1018580062D1FFF7DFF8801B0228F5D90323F2E1F4
:10186800294A136843F4803313606FE703F1804318
:10187800A3F53C331A6842F480221A601A6842F4CD
:1018880080321A6062E7FFF7C5F807461E4B1B68EF
:1018980013F4003FC5D0FFF7BDF8C01B6428F5D985
:1018A8000323D0E1022EC4D1174B1B6813F4806FB9
:1018B80003D0E368002B00F0C381134A536823F078
:1018C800F853216943EA01635360236813F0080F52
:1018D80056D06369002B3CD00B4AD2F8943043F0C1
:1018E8000103C2F89430FFF795F80646064BD3F883
:1018F800943013F0020F43D1FFF78CF8801B0228B5
:10190800F4D903239FE100BF00100240582B0008C0
:101918000000002008000020B14A536823F0F85363
:10192800216943EA01635360CFE7AD4A136823F4A2
:1019380080731360FFF76EF80646A94B1B6813F413
:10194800806FC2D0FFF766F8801B0228F5D9032301
:1019580079E1A34AD2F8943023F00103C2F8943015
:10196800FFF758F806469E4BD3F8943013F0020F51
:1019780006D0FFF74FF8801B0228F4D9032362E151
:10198800236813F0040F7AD0954B9B6D13F0805F9A
:1019980036D1934B9A6D42F080529A659B6D03F055
:1019A80080530193019B01268E4B1B6813F4807FA3
:1019B80028D0A368012B39D0052B3FD0884BD3F80A
:1019C800902022F00102C3F89020D3F8902022F052
:1019D8000402C3F89020A368002B3DD0FFF71AF843
:1019E80007467F4BD3F8903013F0020F46D1FFF72C
:1019F80011F8C01B41F288339842F2D9032322E13F
:101A08000026D1E7774A136843F480731360FFF721
:101A180001F80746734B1B6813F4807FC9D1FEF7A2
:101A2800F9FFC01B0228F5D903230CE16C4AD2F850
:101A3800903043F00103C2F89030CCE7684BD3F8FC
:101A4800902042F00402C3F89020D3F8902042F08E
:101A58000102C3F89020BEE7FEF7DCFF0746604BA3
:101A6800D3F8903013F0020F08D0FEF7D3FFC01B55
:101A780041F288339842F2D90323E4E0EEB9A36A2D
:101A8800002B00F0DF80022B1DD00C2D00F0E2802F
:101A9800534A136823F080731360FEF7BBFF0446B4
:101AA8004F4B1B6813F0007F00F0BA80FEF7B2FFBF
:101AB800001B0228F4D90323C5E0494A936D23F09B
:101AC80080539365DBE7464BDB6803F00301E26A6A
:101AD80091420FD00C2D00F0B980414B1B6813F0D8
:101AE800806F40F0B5803E4B1B6813F0805F2DD0AF
:101AF8000123A8E003F07002216B0139B2EB011F4A
:101B0800E8D103F4FE42616BB2EB012FE2D103F49A
:101B18000031A26B073A18BF01229142DAD103F4CF
:101B2800C001E26B5208013AB1EB425FD2D103F037
:101B3800C063226C5208013AB3EB426FCAD1284BFA
:101B48001B6813F0007F51D000237CE0244A1368FF
:101B580023F080731360FEF75DFF0546204B1B687A
:101B680013F0007F06D0FEF755FF401B0228F5D979
:101B7800032368E01A4AD3681B491940E36A206BBB
:101B8800013843EA0013606B43EA0023E06B400826
:101B9800013843EA4053206C4008013843EA406367
:101BA800A06B000943EA40430B43D360136843F03A
:101BB80080731360D36843F08073D360FEF72AFF05
:101BC8000446074B1B6813F0007F06D1FEF722FF7F
:101BD800001B0228F5D9032335E0002333E000BFBA
:101BE80000100240007000408C809DF91A4B1A6862
:101BF80042F080721A60DA6842F08072DA60FEF7AA
:101C080009FF0446144B1B6813F0007F06D1FEF74A
:101C180001FF001B0228F5D9032314E0002312E07A
:101C28000D4AD1680D4B0B40D36000230BE0012314
:101C380018467047012306E0012304E0012302E06F
:101C4800012300E00023184603B0F0BD0123FAE7A2
:101C58000123F8E70123F6E700100240FCFFEEFE3F
:101C6800002800F0AF8070B504465A4B1B6803F09B
:101C780007038B420BD2574A136823F007030B4321
:101C88001360136803F007038B4240F09D802368BC
:101C980013F0020F0CD0A2684F4B9B6803F0F003BF
:101CA8009A4205D94C48836823F0F0031A438260AE
:101CB8000D46236813F0010F39D06368032B09D050
:101CC800022B26D063BB444A126812F0020F06D1D9
:101CD800012076E0404A126812F0007F76D03E4933
:101CE8008A6822F0030213438B60FEF793FE0646D0
:101CF800394B9B6803F00C036268B3EB820F16D074
:101D0800FEF788FE801B41F288339842F0D9032001
:101D180057E0314A126812F4003FE0D1012050E048
:101D28002D4A126812F4806FD9D1012049E0236846
:101D380013F0020F0CD0A268274B9B6803F0F00346
:101D48009A4205D224498B6823F0F0031A438A602B
:101D5800204B1B6803F00703AB420AD91D4A1368DE
:101D680023F007032B431360136803F00703AB4208
:101D78002ED1236813F0040F06D0174A936823F472
:101D8800E063E1680B439360236813F0080F07D002
:101D9800114A936823F46053216943EAC1039360AD
:101DA800FFF7F2FB0C4B9B68C3F303130B4AD35C9E
:101DB80003F01F03D8400A4B18600A4B1868FEF757
:101DC800DFFD70BD012070470120FAE70120F8E728
:101DD8000120F6E70020024000100240582B0008BE
:101DE8000000002008000020014B1868704700BF61
:101DF8000000002008B5FFF7F7FF054B9B68C3F309
:101E08000223044AD35C03F01F03D84008BD00BF77
:101E180000100240682B000808B5FFF7E5FF054BE6
:101E28009B68C3F3C223044AD35C03F01F03D84062
:101E380008BD00BF00100240682B0008F8B55A4BD7
:101E4800DB6813F0030F18D0574BDB6803F003036C
:101E58000268934202D001242046F8BD002A00F00F
:101E6800A080514BDB68C3F30213013342689342ED
:101E780001D00124F0E7002409E00368022B59D0BF
:101E8800032B5ED0012B44D00124002CE4D10F4653
:101E98000646454A136823F080631360FEF7BAFDCF
:101EA8000546414B1B6813F0006F05D0FEF7B2FDE5
:101EB800401B0228F5D90324002CCDD1002F4ED188
:101EC80039490B6923F41F3323F44073B068F2686F
:101ED8001209520442EA002213430B61324A136882
:101EE80043F080631360FEF795FD05462E4B1B6893
:101EF80013F0006F05D1FEF78DFD401B0228F5D9C0
:101F08000324002CA8D1284A1369B1690B43136133
:101F1800A2E7254A126812F0020F1ED0224DEA6885
:101F280022F073024468013C43EA04131343EB6054
:101F38000024AAE71C4A126812F4806FEED101242B
:101F4800A3E7194A126812F4003FE7D1164A12684B
:101F580012F4802FE2D1012497E7012495E7012F9D
:101F68000FD01148026922F0C06222F4FE42B16823
:101F780073695B08013B5B0643EA01231343036172
:101F8800ACE70948026922F4C00222F4FE42B168B3
:101F980033695B08013B5B0543EA01231343036193
:101FA8009CE7012458E700BF00100240F8B5514BE8
:101FB800DB6813F0030F18D04E4BDB6803F0030304
:101FC8000268934202D001242046F8BD002A00F09E
:101FD8008E80484BDB68C3F3021301334268934297
:101FE80001D00124F0E7002409E00368022B59D04E
:101FF800032B5ED0012B44D00124002CE4D10F46E2
:1020080006463C4A136823F080531360FEF702FD2E
:102018000546384B1B6813F0005F05D0FEF7FAFC45
:10202800401B0228F5D90324002CCDD1002F4ED116
:1020380030494B6923F41F3323F44073B068F268C6
:102048001209520442EA002213434B61294A1368D9
:1020580043F080531360FEF7DDFC0546254B1B68F3
:1020680013F0005F05D1FEF7D5FC401B0228F5D917
:102078000324002CA8D11F4A536971690B4353618B
:10208800A2E71C4A126812F0020F1ED0194DEA6826
:1020980022F073024468013C43EA04131343EB60E3
:1020A8000024AAE7134A126812F4806FEED10124C3
:1020B800A3E7104A126812F4003FE7D10D4A1268EC
:1020C80012F4802FE2D1012497E7012495E709480B
:1020D800426922F0C06222F4FE42B16833695B08AB
:1020E800013B5B0643EA012313434361AEE7012446
:1020F8006AE700BF001002402DE9F04182B00446B3
:10210800036813F4006F33D0436EB3F5800F29D002
:1021180011D9B3F5000F1ED0B3F5400F18D1002721
:10212800664AD2F8883023F44003616E0B43C2F844
:10213800883000261EE043B900210430FFF77EFEF8
:102148000746002FECD03E4614E00126374611E042
:10215800012637460EE0594AD36843F48033D360EA
:102168000027DDE700212030FFF720FF0746E8E7DA
:1021780000263746236813F4805F15D0A36EB3F1A9
:10218800807F7DD069D9B3F1007F73D0B3F1407FF0
:102198006DD1002F7BD1494AD2F8883023F04073A3
:1021A800A16E0B43C2F88830236813F4003F00F097
:1021B8008E80424B9B6D13F0805F6AD13F4B9A6DC6
:1021C80042F080529A659B6D03F080530193019B06
:1021D8004FF001083A4A136843F480731360FEF71E
:1021E80019FC0546364B1B6813F4807F05D1FEF7B2
:1021F80011FC401B0228F5D90327002F62D12F4B71
:10220800D3F8903013F4407316D0D4F884209A424F
:1022180012D02A4AD2F8903023F44073D2F89010A2
:1022280041F48031C2F89010D2F8901021F4803136
:10223800C2F89010C2F8903013F0010F2CD1002F83
:1022480040F043811D4AD2F8903023F44073D4F80B
:1022580084100B43C2F8903035E02BB90021201DC3
:10226800FFF7ECFD074694E7012637469CE7012671
:10227800374699E7114AD36843F48033D36088E737
:10228800002104F12000FFF791FE074681E73E4652
:102298008AE74FF000089DE7FEF7BCFB0546074BB1
:1022A800D3F8903013F0020FC9D1FEF7B3FB401BEF
:1022B80041F288339842F2D90327C0E70010024060
:1022C800007000403E46B8F1000F40F000812368DE
:1022D80013F0010F08D09D4AD2F8883023F0030389
:1022E800A16B0B43C2F88830236813F0020F08D0A3
:1022F800964AD2F8883023F00C03E16B0B43C2F8FE
:102308008830236813F0040F08D0904AD2F8883038
:1023180023F03003216C0B43C2F88830236813F094
:10232800080F08D0894AD2F8883023F0C003616CBE
:102338000B43C2F88830236813F0100F08D0834A83
:10234800D2F8883023F44073A16C0B43C2F888306C
:10235800236813F0200F08D07C4AD2F8883023F481
:102368004063E16C0B43C2F88830236813F4007FA4
:1023780008D0764AD2F8883023F44023E16D0B4325
:10238800C2F88830236813F4806F08D06F4AD2F8F7
:10239800883023F44013216E0B43C2F88830236839
:1023A80013F0400F08D0694AD2F8883023F440531C
:1023B800216D0B43C2F88830236813F0800F08D0D2
:1023C800624AD2F8883023F44043616D0B43C2F867
:1023D8008830236813F4807F08D05C4AD2F88830AC
:1023E80023F44033A16D0B43C2F88830236813F4FB
:1023F800005F0FD0554AD2F8883023F04063E16E71
:102408000B43C2F88830E36EB3F1006F65D0B3F1C7
:10241800806F67D0236813F4002F0FD04B4AD2F88F
:10242800883023F04063216F0B43C2F88830236F54
:10243800B3F1006F5ED0B3F1806F60D0236813F4FE
:10244800802F0FD0414AD2F8883023F04063616F63
:102458000B43C2F88830636FB3F1006F57D0B3F104
:10246800806F59D0236813F4804F0FD0374AD2F8C1
:10247800883023F04053A16F0B43C2F88830A36F14
:10248800B3F1805F50D0B3F1005F55D0236813F4E7
:10249800004F08D02D4AD2F8883023F08043E16FEE
:1024A8000B43C2F88830236813F4803F09D0274AC9
:1024B800D2F8883023F00043D4F880100B43C2F8D8
:1024C8008830304602B0BDE8F0813E46FBE61F4A40
:1024D800936D23F080539365F9E6D36843F4801332
:1024E800D36097E70121201DFFF7A8FC002891D0B1
:1024F80006468FE7D36843F48013D3609EE7012133
:10250800201DFFF79BFC002898D0064696E7D36865
:1025180043F48013D360A5E70121201DFFF78EFC4B
:1025280000289FD006469DE70221201DFFF786FC64
:102538000028ABD00646A9E7022104F12000FFF7E6
:1025480035FD0028A2D00646A0E700BF00100240D3
:102558002DE9D84804460168836802691343426933
:102568001343C269134308688F4A024013430B6040
:102578002268536823F44053E1680B435360A16910
:1025880022688A4B9A4201D0236A1943936823F43C
:1025980030630B4393602368854A934211D0854A80
:1025A800934222D0844A934238D0844A934260D0DE
:1025B800834A934273D07D4A934200F08980102267
:1025C8003FE002F55842D2F8882002F00302032ABD
:1025D80009D8DFE802F002049606012231E004225D
:1025E8002FE008222DE010222BE002F5E632D2F887
:1025F800882002F00C020C2A0ED8DFE802F0070D42
:102608000D0D090D0D0D840D0D0D0B00002218E0A8
:10261800042216E0082214E0102212E002F5E43247
:10262800D2F8882002F03002102A6ED005D9202A6C
:102638006DD0302A1BD1082203E00AB9002200E03D
:1026480010225A498B4270D0E069B0F5004F00F073
:102658009F80082A00F20A81DFE812F0DA00F10010
:10266800D8000801F400080108010801F700102249
:10267800E7E702F5E232D2F8882002F0C002402AE9
:1026880047D005D9802A46D0C02A06D10822D8E7E3
:102698000AB90022D5E71022D3E71022D1E702F5C4
:1026A800E032D2F8882002F44072B2F5807F34D04C
:1026B80007D9B2F5007F32D0B2F5407F06D10822A3
:1026C800BFE70AB90022BCE71022BAE71022B8E730
:1026D80002F5C832D2F8882002F44062B2F5806F61
:1026E8001FD007D9B2F5006F1DD0B2F5406F06D1E3
:1026F8000822A6E70AB90022A3E71022A1E71022C0
:102708009FE702229DE702229BE7042299E7022223
:1027180097E7042295E7022293E7042291E7022231
:102728008FE704228DE702228BE7082A00F29080C7
:10273800DFE802F0088E108E0D8E8E8E05004FF4A5
:10274800004008E0FFF756FB28B9002072E0FEF7CA
:102758001BFFF9E71B48626802EB4203834279D802
:10276800B0EB023F78D80023070E0602500816EB9C
:10277800000B47F1000C58466146FDF7B9FDA0F57E
:102788004072114B9A4269D82368D860002051E002
:10279800082A65D8DFE802F01A34056437646464EF
:1027A8001E00084816E000BFF369FFEF00800040F4
:1027B800003801400044004000480040004C004000
:1027C800005000400024F400FFFC0F00FFF712FB4C
:1027D800002847D06268530803EB4000B0FBF2F0D2
:1027E800A0F110024FF6EF739A423DD883B223F05E
:1027F8000F03C0F3420018432368D860002019E093
:10280800FFF70AFBE4E7FEF7BFFEE1E71A4802E03C
:10281800FFF7F0FA60B3636800EB5300B0FBF3F026
:10282800A0F110024FF6EF739A4223D8236880B2C2
:10283800D860002000236366A366BDE8D888FFF748
:10284800EBFAE7E7FEF7A0FEE4E74FF40040E2E723
:102858000120EFE70120EDE70120EBE70120E9E7A0
:102868000120E7E70020E5E70120E3E70120E1E7B1
:102878000020DFE70120DDE70024F400436A13F0BD
:10288800010F06D00268536823F40033816A0B43B2
:102898005360436A13F0020F06D00268536823F4AA
:1028A8008033C16A0B435360436A13F0040F06D0A8
:1028B8000268536823F48023016B0B435360436A17
:1028C80013F0080F06D00268536823F40043416BE5
:1028D8000B435360436A13F0100F06D002689368E5
:1028E80023F48053816B0B439360436A13F0200FEA
:1028F80006D00268936823F40053C16B0B439360BE
:10290800436A13F0400F0AD00268536823F4801317
:10291800016C0B435360036CB3F5801F0BD0436A03
:1029280013F0800F06D00268536823F40023816CEB
:102938000B43536070470268536823F4C003416C2B
:102948000B435360EBE72DE9F04104460F4616466A
:102958009846069D2368DB6937EA03030CBF012309
:102968000023B34251D1B5F1FF3FF3D0FEF752F83F
:10297800A0EB0800A8422BD855B323681A6812F0B8
:10298800040FE7D0DA6912F4006FE3D04FF4006265
:102998001A62226852E8003F23F4D07342E80031FB
:1029A8000029F6D1226802F1080353E8003F23F01A
:1029B8000103083242E800310029F3D12023A3673C
:1029C800E367C4F88030002384F8743003201DE0E6
:1029D800226852E8003F23F4D07342E8003100290E
:1029E800F6D1226802F1080353E8003F23F00103FF
:1029F800083242E800310029F3D12023A367E367B6
:102A0800002384F87430032000E00020BDE8F08142
:102A180030B583B004460023C0F88030FDF7FAFFD4
:102A2800054623681B6813F0080F0DD123681B683F
:102A380013F0040F16D12023A367E3670020206654
:102A480084F8740003B030BD6FF07E4300930346F2
:102A580000224FF400112046FFF775FF0028E5D04B
:102A68000320EFE76FF07E4300932B4600224FF4DC
:102A780080012046FFF767FF0028DCD00320E1E74C
:102A880068B310B50446836F03B32423A367226891
:102A9800136823F0010313602046FFF759FD01284E
:102AA80013D0636ABBB92268536823F49043536018
:102AB8002268936823F02A0393602268136843F01E
:102AC800010313602046FFF7A3FF10BD80F87430A0
:102AD800FDF7FCFED9E72046FFF7D0FEE3E701202B
:102AE80070470000DFF834D0FDF740FF0C480D496F
:102AF8000D4A002302E0D458C4500433C4188C4251
:102B0800F9D30A4A0A4C002301E013600432A242B6
:102B1800FBD3FDF779FBFDF764FEFEE7008001209B
:102B28000000002010000020B82B00081000002032
:102B380018010020FEE70000F8B500BFF8BC08BC8B
:102B48009E467047F8B500BFF8BC08BC9E46704763
:102B58000000000000000000010203040607080945
:102B68000000000001020304A0860100400D0300DC
:102B7800801A060000350C0040420F0080841E00B9
:102B880000093D0000127A000024F40000366E01AE
:082B98000048E801006CDC02BA
:082BA00088D7FF7F010000004F
:082BA800F1010008000000002B
:082BB000C9010008000000004B
:102BB80000093D00010000001000000000000000B6
:0400000508002AEDD8
:00000001FF
