:020000040800F2
:1000000000800120A14D00082528000827280008AD
:10001000292800082B2800082D28000800000000CF
:100020000000000000000000000000002F28000871
:100030003128000800000000332800083528000897
:10004000F14D0008F14D0008F14D0008F14D000898
:10005000F14D0008F14D0008F14D0008F14D000888
:10006000F14D0008F14D0008F14D0008F14D000878
:10007000F14D0008F14D0008F14D0008F14D000868
:10008000F14D0008F14D0008F14D0008F14D000858
:10009000F14D0008F14D0008F14D0008F14D000848
:1000A000F14D0008F14D0008F14D0008F14D000838
:1000B000F14D0008F14D0008F14D0008F14D000828
:1000C000F14D0008F14D0008F14D0008F14D000818
:1000D000F14D0008F14D0008F14D0008F14D000808
:1000E000F14D0008F14D0008F14D0008F14D0008F8
:1000F000F14D0008F14D0008F14D0008F14D0008E8
:10010000F14D0008F14D0008F14D0008F14D0008D7
:10011000F14D0008F14D0008F14D0008F14D0008C7
:10012000F14D0008F14D0008F14D0008F14D0008B7
:10013000F14D0008F14D0008F14D0008F14D0008A7
:10014000F14D0008F14D0008F14D0008F14D000897
:10015000F14D0008F14D0008F14D0008F14D000887
:10016000F14D0008F14D0008F14D0008F14D000877
:10017000F14D0008F14D0008F14D000800000000AD
:08018000F14D0008F14D0008EB
:1001C0000348044B834202D0034B03B118477047E6
:1001D0007000002070000020000000000548064963
:1001E000091A891001EBD171491002D0034B03B1F8
:1001F00018477047700000207000002000000000C9
:1002000010B5064C237843B9FFF7DAFF044B13B15E
:100210000448AFF300800123237010BD700000205C
:1002200000000000F44D000808B5044B1BB1044960
:100230000448AFF30080BDE80840CFE700000000AD
:1002400074000020F44D000870B50D4E0D4D761B66
:10025000B61006D00024013455F8043B9847A64256
:10026000F9D1094E094D761B04F0C4FDB61006D035
:100270000024013455F8043B9847A642F9D170BDDB
:10028000184F0008184F00081C4F0008184F0008AE
:10029000F0B4860746D0541E002A3CD0CAB20346AA
:1002A00002E014F1FF3436D303F8012B9D07F8D197
:1002B000032C29D9CDB245EA05250F2C45EA054581
:1002C00033D9A4F11006360903F1200707EB06170E
:1002D00003F1100242E9045542E902551032BA42D4
:1002E000F8D1721C14F00C0F03EB021204F00F068D
:1002F00013D0331F23F003030433134442F8045B89
:100300009342FBD106F003042CB1C9B21C4403F89C
:10031000011B9C42FBD1F0BC704734461346002CB5
:10032000F3D1F8E714460346C2E71A462646E0E74B
:100330000EB410B5044683B008B1836963B106A852
:1003400003460190059AA168204600F0FDFC03B029
:10035000BDE8104003B0704700F0C8F9EFE700BFF8
:100360000FB410B50B4B1C6882B00CB1A36963B11C
:1003700005A803460190049AA168204600F0E4FC19
:1003800002B0BDE8104004B07047204600F0AEF95E
:10039000EEE700BF000000200CB470B59CB020ACAC
:1003A0000B4E54F8042B0291234606916FF0004542
:1003B00002A901940795CDE9045600F047FB029B82
:1003C00000221A701CB0BDE8704002B0704700BF38
:1003D0000802FFFF0EB430B59CB01FAB0C4C0D4DA6
:1003E00053F8042B0193014602910691206802A95B
:1003F0006FF000440794CDE9044500F027FB029B11
:1004000000221A701CB0BDE8304003B0704700BF36
:10041000000000200802FFFF0000000000000000B4
:1004200000000000000000000000000000000000CC
:1004300000000000000000000000000000000000BC
:1004400090F800F06DE9024520F007016FF0000C14
:1004500010F0070491F820F040F049804FF00004BC
:100460006FF00700D1E9002391F840F000F1080097
:1004700082FA4CF2A4FA8CF283FA4CF3A2FA8CF3CF
:100480004BBBD1E9022382FA4CF200F10800A4FA36
:100490008CF283FA4CF3A2FA8CF3E3B9D1E904238A
:1004A00082FA4CF200F10800A4FA8CF283FA4CF3C1
:1004B000A2FA8CF37BB9D1E9062301F1200182FA7B
:1004C0004CF200F10800A4FA8CF283FA4CF3A2FA81
:1004D0008CF3002BC6D0002A04BF04301A4612BA8F
:1004E000B2FA82F2FDE8024500EBD2007047D1E992
:1004F000002304F00305C4F100004FEAC50514F021
:10050000040F91F840F00CFA05F562EA05021CBFF1
:1005100063EA050362464FF00004A9E70020704734
:10052000014900F029B900BFD91700080020704721
:1005300070B54A1E682505FB02F50E4605F17401EB
:1005400000F044F9044640B100210C30666005F12A
:1005500068022160A060FFF79BFE204670BD00BFCF
:100560001E4B70B51D68AB69064643B34835D5E9E7
:100570000134013B05D51EE0013B5A1C04F168041F
:1005800019D0B4F90C20002AF6D10025144B656669
:10059000C4E90055A560C4E90455A5612946E36096
:1005A000082204F15C00FFF773FEC4E90D55C4E9AD
:1005B0001255204670BD2C682CB12546D7E7284639
:1005C00000F010F8D2E704213046FFF7B1FF0446EF
:1005D00028600028F1D10C233360EAE7104E0008B0
:1005E0000100FFFF2DE9F84F334B34491A6881624F
:1005F00090424FF00003C0E91233036504BF0123AA
:1006000083610546FFF7ACFF68602846FFF7A8FF47
:10061000A8602846FFF7A4FF6E68E8600024042362
:10062000F3607466C6E90044B460C6E90444B4618A
:10063000214606F15C000822FFF72AFEDFF888B0A9
:10064000AF68DFF888A0DFF88890DFF888801C4B5F
:10065000C6F83080C6E9086BC6E90AA92146FB60E6
:1006600008227C66C7E90044BC60C7E90444BC6159
:1006700007F15C00FFF70CFEEE68124BC7F8308004
:10068000C7E9087BC7E90AA92146F3607466C6E991
:100690000044B460C6E90444B46106F15C00082279
:1006A000FFF7F6FD0123C6E9086BC6E90AA9C6F8FB
:1006B0003080AB61BDE8F88F104E000821050008BE
:1006C00009000100120002000D1400083514000892
:1006D0007514000895140008024B0349186800F0CF
:1006E0004BB800BF104E0008D9170008836903B942
:1006F00078E77047704700BF704700BF704700BF82
:10070000704700BF024B0349186800F00FB800BFE4
:10071000000000201D050008024B0349186800F086
:1007200005B800BF000000202D0500082DE9F041AC
:1007300010F148071BD088460026D7E90154013D37
:100740000FD4A389012B05F1FF3506D9B4F90E307A
:100750000133204601D0C04706436B1C04F16804F6
:10076000EFD13F68002FE8D13046BDE8F0813E462A
:100770003046BDE8F08100BF2DE9F84310F148078D
:100780001FD0884606464FF00009D7E90154013DC5
:1007900011D4A389012B05F1FF3508D9B4F90E3026
:1007A00001332146304602D0C04749EA00096B1C9C
:1007B00004F16804EDD13F68002FE6D14846BDE85A
:1007C000F883B9464846BDE8F88300BFF8B5CD1CAC
:1007D00025F0030508350C2D38BF0C25002D0646E5
:1007E00033DBA94231D82A4F01F09CFB3A6852B161
:1007F00013685B1B04D43FE023685B1B29D52246AA
:100800005468002CF8D1796800293BD0294630463D
:1008100000F0EAFD431C28D0C41C24F00304A042CD
:1008200005D0211A304600F0DFFD01301DD02560D3
:10083000304601F079FB04F10B0020F00700231D86
:10084000C21A01D01B1AA350F8BD0C22326000203E
:10085000F8BD0B2B05D8A242636811D05360E7E7BF
:10086000144623601C442560E2E70C2330463360C5
:1008700001F05AFB0020F8BD0B2BF1D85368144649
:100880003B60D5E7304600F0AFFD7860BEE700BFC3
:100890008C0000202DE9F0478E681D46AE420C46C4
:1008A0000B68174636D88046888910F4906F0ED1B1
:1008B000354618462A46394601F0CCFAA268236824
:1008C000961B2B44A66023600020BDE8F087D1E989
:1008D000041606EB4606A3EB010906EBD6766B1C65
:1008E00076104B44B342324684BF1E46324643051F
:1008F00012D511464046FFF769FF824600B34A46CB
:10090000216901F00DFAA38923F4906343F0800379
:10091000A38106E02E46CCE7404601F05DFB82460F
:1009200050B1A6EB09020AEB09036661C4F810A0F6
:100930002360A2602E46BCE72169404601F0F6FA2A
:100940000C23C8F80030A38943F04003A3814FF083
:10095000FF30BAE72DE9F04F936883B09046002B43
:100960006DD017688D6882460C460868083743E0EA
:10097000A38913F4906F2ED0D4E9041505EB450537
:10098000A0EB010B05EBD5750BEB06006D100130EC
:10099000A8422A4684BF05462A465B0536D511463D
:1009A0005046FFF713FF00283AD05A4621690190BC
:1009B00001F0B6F9A289019B22F4906242F0800214
:1009C000A281A5EB0B0203EB0B00656123612060A4
:1009D000A2603546B3465A46494601F03BFAD8F87C
:1009E0000830A2682068551B58449E1BA5602060F3
:1009F000C8F808601EB3083757E90296AB46002EC8
:100A0000F9D0AE42B4D23546B346E4E7504601F0E1
:100A1000E3FA03460028D4D12169504601F086FA52
:100A20000C23CAF80030A389002243F040034FF0A2
:100A3000FF30A381C8E9012203B0BDE8F08F002098
:100A4000C8F8040003B0BDE8F08F00BF2DE9F04FF7
:100A500090468A899FB014068B46029003D50A6996
:100A6000002A00F00B81059330238DF8323098F87E
:100A700000308E4E002120220B918DF8312001276D
:100A8000002B00F08480252B00F0F680454603E023
:100A9000252B00F0868025466B786C1C002BF7D147
:100AA000B4EB080A73D04246534659460298FFF702
:100AB000F1FE01306BD00B9B6A7853440B93002AF4
:100AC00065D000234FF0FF3201340693CDE908339F
:100AD0008DF85B301C93079205E0069A07FA03F342
:100AE00013432C4606932546052215F8011B304674
:100AF00001F0C6F8AA46831B0028EED1069BD90652
:100B000044BF20228DF85B2021781A0744BF2B2296
:100B10008DF85B202A2948D1059A116804320029F2
:100B200005927EDB09916178A51C2E2956D0604C78
:100B30000322204601F0A4F8002868D0001B069B81
:100B4000402404FA00F00343069305F101082978D4
:100B500058488DF83010062201F092F8002866D02F
:100B6000554B002B56D005AB00935A46534B029879
:100B700006A9AFF300808146B9F1FF3F07D00B9B78
:100B80004B440B9398F80030002B7FF47CAFBBF8FC
:100B90000C305B0654BF0B984FF0FF301FB0BDE820
:100BA000F08FB4EB080A8CD07DE7A1F13002092A5E
:100BB00088BFA246B9D8099B01E02C4601352978A7
:100BC00003EB830302EB4303A1F13002092AAA4697
:100BD000F3D92E2904F102050993A8D19AF801103E
:100BE0002A292ED1059B9AF802101A68079204331D
:100BF000002A05930AF103050AF1020337DB2C4CA6
:100C0000032220469A4601F03BF8002896D1A846D8
:100C100055469CE7059B073323F0070308330593EC
:100C2000ADE7494243F00203099106937BE705AB28
:100C300000935A46214B029806A900F089FA814692
:100C40009AE7A1F130020023092A079301D923E092
:100C50005546697803EB830302EB4303A1F13002AD
:100C6000092A05F1010AF3D9023507935FE74FF02E
:100C7000FF329A4607925AE7444622E740210393FF
:100C8000FFF7A4FD039BCBF80000CBF8100030B1B8
:100C90004022CBF81420E6E6AA46013547E7029A3F
:100CA0000C2313604FF0FF3078E700BFD44E0008EC
:100CB000DC4E0008E04E0008000000009508000827
:100CC0009368013B002B936011DA10B49469A3423E
:100CD00009DB0A2907D01368581C106019700846F0
:100CE0005DF8044B70475DF8044B00F0D7BB136808
:100CF000581C106019700846704700BF9BB1F8B5CA
:100D000013440F4606465D1E541E01E0AC4208D057
:100D10003A4614F8011F3046FFF7D2FF431CF5D1C5
:100D2000F8BD0020F8BD0020704700BF936810B5E3
:100D3000144613B95360184610BD00F08FFD002310
:100D4000C4E9013310BD00BF2DE9F04F9FB08B46C1
:100D500090461C46039018B18369002B00F0B780C1
:100D6000A24B9B4500F0B980A14B9B4500F0C7808A
:100D7000A04B9B4504BF039BD3F80CB0BBF80C30D1
:100D8000180740F1B280DBF81030002B00F0AD8086
:100D900030238DF8323098F800300594002120225D
:100DA0000B918DF83120944E0127002B00F08780A5
:100DB000252B00F01581454603E0252B00F0A3808C
:100DC00025466B786C1C002BF7D1B4EB080A76D063
:100DD0004246534659460398FFF790FF01306ED0C4
:100DE0000B9B6A7853440B93002A68D000234FF082
:100DF000FF3201340693CDE908338DF85B301C9344
:100E0000079205E0069A07FA03F313432C4606936C
:100E10002546052215F8011B304600F031FFAA4691
:100E2000831B0028EED1069BD90644BF20228DF8F3
:100E30005B2021781A0744BF2B228DF85B202A29DA
:100E400066D1059A1168043200290592C0F29D808E
:100E500009916178A51C2E2973D0684C0322204685
:100E600000F00EFF002800F08680001B069B402447
:100E700004FA00F00343069305F10108297860485D
:100E80008DF83010062200F0FBFE002800F0838071
:100E90005C4B002B72D005AB00935A465A4B03981B
:100EA00006A9AFF300808146B9F1FF3F07D00B9B45
:100EB0004B440B9398F80030002B7FF479AFBBF8CC
:100EC0000C305B0618D40B981FB0BDE8F08FFFF70D
:100ED0000DFC464B9B457FF447AF039BD3F804B012
:100EE000BBF80C3018073FF54EAF5946039800F099
:100EF0004BFB00283FF44CAF4FF0FF30E4E7039B7F
:100F0000D3F808B03AE7B4EB080A3FF46FAF5FE7F5
:100F1000A1F13002092A88BFA2469CD8099B01E0B2
:100F20002C460135297803EB830302EB4303A1F13F
:100F30003002092AAA46F3D92E2904F102050993A1
:100F40008BD19AF801102A292FD1059B9AF802100B
:100F50001A6807920433002A05930AF103050AF17F
:100F6000020338DB254C032220469A4600F088FE17
:100F700000287FF47AAFA84655467FE7059B0733E4
:100F800023F007030833059391E7494243F0020336
:100F9000099106935DE705AB00935A461A4B0398F7
:100FA00006A900F0D5F881467EE7A1F130020023C2
:100FB000092A079301D915E05546697803EB8303A5
:100FC00002EB4303A1F13002092A05F1010AF3D92A
:100FD0000235079341E74FF0FF329A4607923CE70C
:100FE000444603E7AA46013537E700BF544E0008E0
:100FF000344E0008144E0008D44E0008DC4E0008A1
:10100000E04E000800000000FD0C000810B4044C85
:1010100013460A46014620685DF8044BFFF794BE6C
:10102000000000202DE9F0470C4691460A698968C6
:10103000DDF820808A42B8BF0A46C9F8002094F83B
:10104000431006461F4611B10132C9F8002023683B
:1010500099065CD5D9F800200232C9F8002023682F
:1010600013F0060F19461DD1E1688A1A002AD8BF6D
:10107000194617DD04F1190A002505E0E368D9F8DF
:1010800000209B1AAB420CDD012352463946304604
:10109000C047013005F10105F0D14FF0FF30BDE848
:1010A000F087216894F84330003318BF01238A0683
:1010B0000AD5E1185A1C302081F84300224494F8E4
:1010C000451082F84310023304F14302394630469A
:1010D000C0470130E1D02368A268216903F006030C
:1010E000042B1DD08A4226DD4FF00009521A91448C
:1010F0001A34002501E04D451DDA01232246394608
:101100003046C047013005F10105F4D1C5E713F0C1
:10111000060F13D094F84330003318BF0123D3E7F0
:10112000D9F80000E3688A42A3EB000323EAE379DD
:10113000DCDC002BDCDC0020BDE8F087E168D9F8BE
:1011400000208A1A002AD8BF194693DCAAE700BFFC
:101150002DE9F0430C46097E85B06E2906461746F8
:101160000C98984604F1430E6DD039D9732900F0DC
:10117000F68044D9752900F00481782940F0118166
:1011800078232268DFF858C284F8453001681506D4
:1011900051F8043B016040F1A180D10744BF42F007
:1011A00020022260002B00F093801022002184F89E
:1011B00043106068A0600028C0F2C880216821F058
:1011C00004012160002B40F0A380002840F0C08083
:1011D0007546082A00F0AC80AEEB0503236141E0C0
:1011E000632900F0E5801AD8002938D0582940F04A
:1011F000D88084F845102268DFF8E8C1C6E76F2977
:1012000000F0BF80702940F0CC802268DFF8D0C1A8
:1012100042F020027823226084F84530B6E7642942
:1012200002D0692940F0BD8022680368110603F1ED
:10123000040557D5196805600B46002959DBDFF80E
:10124000A4C10A22B5E70368226861691D1D056013
:1012500015061B6802D4500600F1BD8019600023FA
:1012600075462361CDF800803B4603AA21463046EF
:10127000FFF7D8FE013020D02A4623693946304690
:10128000C047013019D022680398E368920719D546
:101290001A1A002A16DD04F11909002504E0E36892
:1012A00003981A1AAA420DDD01234A4639463046F0
:1012B000C047013005F10105F1D14FF0FF3005B015
:1012C000BDE8F0839842B8BF184605B0BDE8F0838A
:1012D000226822F020022260102267E7500648BFF1
:1012E0009BB25AE75106A5D5B3F9003005601946FF
:1012F000A3E76168A1602D200029C3F1000384F8F1
:10130000430002DB22F004022260DFF8D8C00A2288
:10131000754600E00B46B3FBF2F102FB113093423D
:101320001CF8000005F8010DF4D2082A7FF454AF30
:101330002368DB077FF550AF626823699A423FF765
:101340004BAF302305F8013C013D45E7002BDFD1D1
:101350009CF8003084F8423004F1420539E7036814
:101360006268191D01601D680021284600F088FC94
:10137000002832D0401B60602061002384F8433095
:1013800070E72268036812F0800F03F104051AD099
:101390001B6805606F290CBF08220A22DFF844C0D1
:1013A00004E7012384F84210236104F14205E4E7D5
:1013B00003681A68191D0123016004F1420584F8CD
:1013C00042202361D9E712F0400F0DBF1B68056072
:1013D0001B880560DEE7198041E76068CCE700BF45
:1013E000FC4E0008E84E000838B5074C00230546BF
:1013F0000846236000F082FE431C00D038BD2368FD
:10140000002BFBD02B6038BD8401002010B50C46AA
:10141000B1F90E1000F006FE002803DB636D0344F3
:10142000636510BDA38923F48053A38110BD00BF61
:10143000002070472DE9F0411646B1F90C201F46F7
:10144000D3050C460546B1F90E1009D422F480529A
:10145000A2813B4632462846BDE8F04100F07EB806
:101460000022022300F07EFBB4F90C20B4F90E1028
:10147000ECE700BF10B50C46B1F90E1000F072FB9E
:10148000A389421C0EBF23F4805343F4805360654C
:10149000A38110BDB1F90E1000F0F6B8F8B50D46F5
:1014A0001446064608B1836943B3254B9C422AD0B3
:1014B000244B9C4229D0244B9C4208BFF468A3894A
:1014C000A269A2601A0722D5236903B32268616961
:1014D000D31AEDB299422F4629DD0133A168501C81
:1014E0000139A1602060157062699A4216D0A38903
:1014F000DB0701D50A2D11D03846F8BDFFF7F6F805
:101500000F4B9C42D4D17468D9E7B468D7E7214621
:10151000304600F039F838B92369D7E7214630461C
:1015200000F05AF90028E7D04FF0FF37E4E72146F2
:10153000304600F051F90028F6D122680123CDE7AA
:10154000544E0008344E0008144E0008024B0A4660
:1015500001461868FFF7A2BF0000002070B50D46D5
:10156000084C114606461A4628460023236000F020
:10157000D3FD431C00D070BD2368002BFBD033602B
:1015800070BD00BF840100203B4B70B51D6806464E
:101590000C460DB1AB69DBB1384B9C421ED0384BC9
:1015A0009C424AD0374B9C4208BFEC68B4F90C20EF
:1015B00093B2190718D5206908B313F001022CD093
:1015C000636900225B42A361A26060B3002070BD2A
:1015D0002846FFF78BF8294B9C42E0D16C68B4F9A0
:1015E0000C2093B21907E6D4DD063CD5580726D463
:1015F000206942F00803A3819BB20028DDD103F4E7
:101600002072B2F5007FD8D03046214600F0EEFAC5
:10161000A389206913F00102D2D1990758BF6269EA
:10162000A2600028D2D1B4F90C301A06CFD543F00D
:101630004003A3814FF0FF3070BDAC68B6E7616B2B
:1016400051B104F14403994204D0304600F06EFCDD
:10165000B4F90C200023636300232069636022F047
:1016600024022060C5E742F04002092333604FF0B6
:10167000FF30A28170BD00BF00000020544E000862
:10168000344E0008144E000838B5074C00230546B8
:101690000846236000F00AFD431C00D038BD2368D3
:1016A000002BFBD02B6038BD840100208B891A07EA
:1016B0002DE9F0410C46804641D44A68002A59DDA4
:1016C000E66A002E53D00022D8F80050216AC8F8EC
:1016D000002013F4805251D101234046B047431CEF
:1016E0005FD0A389E66A216A5F0705D56268636BEC
:1016F000801A0BB1236CC01A024600234046B04743
:10170000461C45D1D8F80030B4F90C20002B55D038
:101710001D2B01D0162B5AD123690022C4E90032B7
:10172000616BC8F8005011B304F14403994202D030
:10173000404600F0FBFB00206063BDE8F0810E69CD
:10174000AEB10D680E6099070CBF63690023AD1B35
:10175000A3600AE02B463246A76A216A4046B84792
:101760000028A5EB000506440ADD002DF2DC002070
:10177000BDE8F0810A6C002AA2DCF8E7606DB3E7EF
:10178000A38943F04003A3814FF0FF30BDE8F0810F
:101790002269A389226000226260DA04C0D56065F4
:1017A000BEE7D8F80030002B9BD01D2B0CD0162B99
:1017B0000AD0A38943F04003A381D9E72169C4E992
:1017C0000013D304ACD5EAE7C8F80050CFE742F0E5
:1017D0004002A281CCE700BF0B6923B310B50446D9
:1017E00082B008B18369BBB1104B994212D0104B43
:1017F000994216D00F4B994208BFE168B1F90C30FD
:101800002BB1204602B0BDE81040FFF74FBF0020CB
:1018100002B010BD6168F1E70191FEF767FF019921
:10182000E2E7A168EAE70020704700BF544E0008D5
:10183000344E0008144E000820B1054B01461868CC
:10184000FFF7CABF034B04491868FEF795BF00BFF6
:1018500000000020104E0008D91700089368002BE4
:1018600000F002812DE9F04FB1F90C309BB20C462B
:10187000190783B08246904635D522699AB313F092
:101880000202D8F800603DD00027D4F828B0D4F880
:1018900020C0DFF8CC923D464D452B463A4628BF46
:1018A0004B4661465046D5B1D847002840F3D28018
:1018B000D8F808301B1A07442D1AC8F80830002B36
:1018C00000F0B780D4F820C0D4F828B04D452B469E
:1018D0003A4628BF4B4661465046002DE4D1D6E932
:1018E00000750836D8E721465046FFF74DFE002820
:1018F00040F03081B4F90C30D8F800609BB213F09E
:101900000202C1D113F0010940F0B080A76820683D
:101910004D46002D54D09A0540F1BC80AF42BB46E5
:1019200000F2E78013F4906F2FD0D4E9041707EB8F
:101930004707A0EB010B07EBD777681C7F105844D3
:10194000B8423A4684BF07463A465B0540F1E98013
:1019500011465046FEF73AFF002800F0F5805A463F
:101960002169019000F0DCF9A289019B22F49062C8
:1019700042F08002A281A7EB0B0203EB0B00676130
:1019800023612060A2602F46AB465A46494600F0CC
:1019900061FAA2682368D21B5B442F46A2602360D1
:1019A0000025D8F80830DB1BB944C8F80830002BF4
:1019B0003FD0B4F90C30A76820689BB2002DAAD1A3
:1019C000D6E900950836A4E70BF1080353E902674E
:1019D0009B460833002FF9D03A460A21304600F0E2
:1019E0004FF9002853D00130A0EB06094B46D4E94B
:1019F00004122068BB4228BF3B46884203D9A56831
:101A00001544AB4219DC9A427DDC1346A56A216A73
:101A100032465046A847051E1CDDB9EB05096BD0C0
:101A20000120D8F808305B1B2E447F1BC8F8083013
:101A300013BB002003B0BDE8F08F31462A4600F00A
:101A400009FA23682B44236021465046FFF7C4FE61
:101A50000028E2D0B4F90C3043F040034FF0FF30DF
:101A6000A38103B0BDE8F08F002070473346914654
:101A7000104617464E469B46002FA5D00028B5D1EC
:101A80003A460A21304600F0FBF80028ABD17B1C17
:101A90009946ACE72369834215D36169A94212D8FC
:101AA0002E4BA76A9D4294BF2B466FF000434A46D7
:101AB00093FBF1F3504601FB03F3216AB847071E7D
:101AC000C8DDED1B6DE7AF4228BF2F463A464946B9
:101AD00000F0C0F9A3682268DB1B3A44A3602260CF
:101AE000002BEED121465046FFF776FE0028E8D0C5
:101AF000B0E72F46AB4648E721465046FFF76CFE5D
:101B000000288ED0A6E71A463146019300F0A2F9CC
:101B1000019BA1682268C91A1A44A16022601D466F
:101B20007BE7504600F058FA034600287FF423AFC5
:101B30002169504600F0FAF9B4F90C300C2223F078
:101B40008003CAF8002087E70C23CAF80030B4F9F4
:101B50000C3081E74FF0FF306CE700BFFEFFFF7FE6
:101B600000FCFF7F70B50D46084C114606461A462C
:101B700028460023236000F0B1FA431C00D070BD5A
:101B80002368002BFBD0336070BD00BF84010020B0
:101B900070B50C46B1F90E10002996B016461D46D8
:101BA00013DB6A4600F054FA00280EDB019A02F4B7
:101BB0007042A2F50052B2FA82F252094FF48063E9
:101BC00000202A60336016B070BDA38900221B0676
:101BD0002A6004D540230020336016B070BD4FF456
:101BE00080630020336016B070BD00BF8A89920701
:101BF0000B4606D501F1470201211A60C3E9042111
:101C0000704770B582B001AB6A460C460646FFF7D6
:101C1000BFFF009905463046FEF7D8FDB4F90C30F9
:101C200070B11649B162019A0099206043F08003B7
:101C3000A381C4E904018AB92B43A38102B070BD1A
:101C40009A05FBD423F0030304F1470243F0020397
:101C50000121A3812260C4E90421EFE73046B4F9F1
:101C60000E1000F009FA10B9B4F90C30E4E7A389BA
:101C700023F0030343F001031BB2DDE72105000855
:101C800001F0FF01102A2BDB10F0070F08D010F82D
:101C9000013B013A8B422DD010F0070F42B3F6D131
:101CA000F0B441EA012141EA014122F007047FF04A
:101CB00000070023F0E80256083C85EA010586EAA1
:101CC000010685FA47F5A3FA87F586FA47F6A5FADD
:101CD00087F68EB9EED1F0BC01F0FF0102F00702E9
:101CE00032B110F8013B013A83EA010313B1F8D194
:101CF0000020704701387047002D06BF3546033875
:101D0000073815F0010F07D1013015F4807F02BFAD
:101D1000013015F4C03F0130F0BC0138704700BFFE
:101D2000844641EA000313F003036DD1403A41D3E6
:101D300051F8043B40F8043B51F8043B40F8043BA5
:101D400051F8043B40F8043B51F8043B40F8043B95
:101D500051F8043B40F8043B51F8043B40F8043B85
:101D600051F8043B40F8043B51F8043B40F8043B75
:101D700051F8043B40F8043B51F8043B40F8043B65
:101D800051F8043B40F8043B51F8043B40F8043B55
:101D900051F8043B40F8043B51F8043B40F8043B45
:101DA00051F8043B40F8043B51F8043B40F8043B35
:101DB000403ABDD2303211D351F8043B40F8043BD5
:101DC00051F8043B40F8043B51F8043B40F8043B15
:101DD00051F8043B40F8043B103AEDD20C3205D3E5
:101DE00051F8043B40F8043B043AF9D2043208D0DD
:101DF000D2071CBF11F8013B00F8013B01D30B884F
:101E000003806046704700BF082A13D38B078DD02C
:101E100010F003038AD0C3F10403D21ADB071CBFFE
:101E200011F8013B00F8013B80D331F8023B20F868
:101E3000023B7BE7043AD9D3013A11F8013B00F8A1
:101E4000013BF9D20B7803704B7843708B78837029
:101E5000604670478842F0B40DD98B1883420AD986
:101E6000841832B1224613F8014D02F8014D99420F
:101E7000F9D1F0BC70470F2A0ED80346541E002A31
:101E8000F7D001340C44013B11F8012B03F8012F6A
:101E9000A142F9D1F0BC704740EA01039B073BD156
:101EA000A2F110073F0901F1200606EB071601F128
:101EB000100300F1100453F8105C44F8105C53F860
:101EC0000C5C44F80C5C53F8085C44F8085C53F86C
:101ED000045C44F8045C1033B34204F11004EAD10A
:101EE0007B1C1B0112F00C0F194402F00F05034478
:101EF00015D0043DAD0803EB850C1C1F0E4656F8AB
:101F0000047B44F8047F6445F9D10135AD002B44CE
:101F1000294402F00302B1E7541E0346B1E72A4602
:101F2000ACE700BF704700BF704700BF00293CD03E
:101F300038B551F8043C0C1F002BB8BFE418054617
:101F4000FFF7F0FF234B1A682AB1A2420DD921688E
:101F50006018824223D0626028461C60BDE8384089
:101F6000FFF7E2BFA34203D81A465368002BF9D10A
:101F700011685018A04219D024D8216860188342F3
:101F800006D0636054602846BDE83840FFF7CCBFF8
:101F9000D3E900030144636021605460F3E7D2E9B0
:101FA0000002014462602160D6E770472068014466
:101FB000501883421160E6D1D3E900030144536015
:101FC0001160E0E70C232B602846BDE83840FFF79E
:101FD000ABBF00BF8C00002009B3F8B51446CAB1EE
:101FE00006460D4600F05AF8A04202D32F46384666
:101FF000F8BD21463046FEF7E9FB07460028F6D03B
:1020000022462946FFF78CFE30462946FFF78EFF11
:102010003846F8BD2746FFF789FF3846F8BD114618
:10202000FEF7D4BB70B50D46084C114606461A465D
:1020300028460023236000F059F8431C00D070BDEF
:102040002368002BFBD0336070BD00BF84010020EB
:1020500038B50B46074C0546114618460023236049
:1020600000F02CF8431C00D038BD2368002BFBD0B7
:102070002B6038BD8401002038B5074C002305468D
:102080000846236000F022F8431C00D038BD2368C6
:10209000002BFBD02B6038BD8401002051F8043C9C
:1020A000181F002BBCBF0B58C0187047024B58229A
:1020B0001A604FF0FF30704784010020024B582215
:1020C0001A604FF0FF30704784010020024B582205
:1020D0001A600020704700BF84010020024B582284
:1020E0001A604FF0FF30704784010020024B5822E5
:1020F0001A604FF0FF30704784010020044A054900
:102100001368002B08BF0B46184410601846704730
:102110009400002088010020024B58221A604FF0E2
:10212000FF3070478401002053B94AB9002908BF25
:1021300000281CBF4FF0FF314FF0FF3000F074B9A2
:10214000ADF1080C6DE904CE00F006F8DDF804E00E
:10215000DDE9022304B070472DE9F047089E0446EC
:102160008846002B40F085808A42154648D9B2FA4D
:1021700082F24AB1C2F1200701FA02F320FA07F70E
:10218000954047EA030894404FEA154E230CB8FBEC
:10219000FEF71FFA85FC0EFB178843EA084307FB8E
:1021A0000CF1994209D9EB1807F1FF3080F0E38078
:1021B000994240F2E080023F2B445B1AA4B2B3FB89
:1021C000FEF00EFB103344EA034400FB0CFCA44574
:1021D00009D92C1900F1FF3380F0CB80A44540F2DF
:1021E000C88002382C4440EA0740A4EB0C040027C6
:1021F0001EB1D4400023C6E900433946BDE8F0874C
:10220000002A53D0B2FA82F2002A40F0B680491B6D
:102210004FEA154E1FFA85F80127B1FBFEFC230C8F
:102220000EFB1C1143EA014308FB0CF1994207D94C
:10223000EB180CF1FF3002D2994200F2EC80844698
:10224000591AA3B2B1FBFEF00EFB101443EA04448A
:1022500008FB00F8A04507D92C1900F1FF3302D282
:10226000A04500F2DC801846A4EB080440EA0C40CC
:10227000BEE78B4208D9002E78D00027C6E90001BE
:1022800038463946BDE8F087B3FA83F77FB98B4209
:1022900002D3824200F2BD80841A61EB0303012065
:1022A0009846002EA9D0C6E90048A6E7FFDEC7F190
:1022B0002005BB4022FA05FC4CEA030C01FA07F4A6
:1022C00020FA05F821FA05F34FEA1C4E48EA040407
:1022D000B3FBFEF9210C0EFB19331FFA8CF841EA0F
:1022E000034309FB08FA9A4502FA07F200FA07F1DC
:1022F0000BD91CEB030309F1FF3080F088809A456D
:1023000040F28580A9F102096344A3EB0A03A4B259
:10231000B3FBFEF00EFB103344EA034400FB08F865
:10232000A04508D91CEB040400F1FF336BD2A04593
:1023300069D90238644440EA0940A4EB0804A0FBD0
:1023400002894C45C6464B4654D351D0002E69D025
:10235000B1EB0E0264EB030404FA05F522FA07F36D
:10236000FC401D43C6E90054002746E73746304687
:1023700043E7184637E707461FE7C2F1200320FA74
:1023800003F7954001FA02F021FA03F34FEA154EE4
:102390003843010CB3FBFEF71FFA85F80EFB173329
:1023A00041EA034107FB08F38B4204FA02F407D920
:1023B000691807F1FF3C28D28B4226D9023F2944F5
:1023C000CB1A81B2B3FBFEF00EFB103341EA03419E
:1023D00000FB08F38B4207D9691800F1FF3C10D2CB
:1023E0008B420ED902382944C91A40EA074714E73C
:1023F0004145ABD2B8EB020E69EB0C020138134633
:10240000A4E76046F0E7184695E76746D8E78146B7
:102410007BE7384645E7ACF1020C2B4410E7023865
:102420002C4421E73746E8E6704700BF10B58AB074
:10243000002405940694079408940994214BDA6CBF
:1024400042F00402DA64DA6C02F004020192019AAA
:10245000DA6C42F08002DA64DA6C02F080020292F6
:10246000029ADA6C42F00102DA64DA6C02F00102DC
:102470000392039ADA6C42F00202DA64DB6C03F036
:1024800002030493049B224620214FF0904001F068
:10249000D1F84FF4005305934FF4041306930794B7
:1024A00005A9094800F0DCFF2023059301230693CA
:1024B0000794089405A94FF0904000F0D1FF0AB0AE
:1024C00010BD00BF001002400008004872B6FEE7D1
:1024D00000B58BB0002307930893099301930293EF
:1024E00003930493059306931C481D4A02604360BE
:1024F0008360C36003610422426103764376012254
:10250000C26180F820308362C36280F83030436358
:1025100080F8383000F000FAD0B90023079307A9FB
:102520000E4800F0B3FEA8B90E4B019306230293A8
:10253000002303937F2204920422059206930DEB5D
:102540000201064800F06EFB30B90BB05DF804FBE9
:10255000FFF7BCFFFFF7BAFFFFF7B8FF98000020B6
:10256000000004500200300408B50B480B4B036018
:102570004FF4E133436000238360C36003610C22A6
:1025800042618361C3610362436202F0D8FB00B918
:1025900008BDFFF79BFF00BFFC0000200044004087
:1025A00000B597B04422002105A8FDF771FE002375
:1025B000009301930293039304934FF4007001F08E
:1025C00047F820BB022305934FF480720892102233
:1025D00009920F931093012211920A22129207225C
:1025E00013921493159305A801F01AF988B90F23D3
:1025F0000093032301930023029303930493042184
:10260000684601F01FFC30B917B05DF804FBFFF716
:102610005DFFFFF75BFFFFF759FF000010B586B0C5
:1026200000F03EF9FFF7BCFFFFF700FFFFF750FF98
:10263000FFF79AFF174C204600F0AAFD4FF0FF313C
:10264000204600F063FA204600F0E8FA82B2124910
:1026500001A8FDF7BFFE01A8FDF7F2FE4FF0FF3322
:1026600082B201A90D4802F0C5FA204600F090FDA3
:102670004FF0FF31204600F049FA204600F0CEFA34
:1026800001460748FDF76CFE4FF47A7000F030F910
:10269000D0E700BF98000020744E0008FC00002026
:1026A000804E000882B00A4B1A6E42F001021A6690
:1026B0001A6E02F001020092009A9A6D42F0805266
:1026C0009A659B6D03F080530193019B02B07047A4
:1026D0000010024070B5AAB0044600212591269151
:1026E000279128912991882203A8FDF7D1FD22681E
:1026F000274B9A4201D02AB070BD4FF48043039318
:102700004FF0805321930223049301220592082263
:10271000069207220792089309934FF080730A9359
:1027200003A801F0DBFD00282ED11A4BDA6C42F42D
:102730000052DA64DA6C02F400520092009ADA6C09
:1027400042F00402DA64DA6C02F004020192019AA7
:10275000DA6C42F00102DA64DB6C03F001030293ED
:10276000029B012625960B2526950024279425A952
:10277000094800F075FE25962695279425A94FF067
:10278000904000F06DFEB6E7FFF7A0FECDE700BF7A
:1027900000000450001002400008004810B5AAB024
:1027A000044600212591269127912891299188227C
:1027B00003A8FDF76DFD2268184B9A4201D02AB09C
:1027C00010BD0223039303A801F088FD10BB144B36
:1027D0009A6D42F400329A659A6D02F400320192C9
:1027E000019ADA6C42F00102DA64DB6C03F0010357
:1027F0000293029B0C232593022326930023279305
:10280000032328930723299325A94FF0904000F034
:1028100027FED4E7FFF75AFED9E700BF0044004087
:1028200000100240FEE7FEE7FEE7FEE7FEE7704726
:102830007047704708B500F049F808BD034AD2F860
:10284000883043F47003C2F88830704700ED00E030
:10285000104B1B780BB90120704710B504464FF49C
:102860007A70B0FBF3F30C4A1068B0FBF3F000F0A1
:10287000E1FD68B90F2C01D901200AE000222146B0
:102880004FF0FF3000F0A2FD044B1C60002000E080
:10289000012010BD68000020640000206C000020B2
:1028A00010B5094A136843F480731360032000F0E5
:1028B0007BFD0020FFF7CCFF10B10124204610BDA6
:1028C0000446FFF7EFFEF9E700200240034B1B78B8
:1028D000034A11680B441360704700BF6800002072
:1028E00080010020014B1868704700BF8001002064
:1028F00038B50446FFF7F6FF0546B4F1FF3F02D0B6
:10290000044B1B781C44FFF7EDFF401BA042FAD399
:1029100038BD00BF6800002030B583B000230193AC
:10292000002800F0E5800446436D3BB323689A68B5
:1029300012F0005F05D09A6822F0204222F03F0298
:102940009A602268936813F0805F1ED1936823F029
:10295000104323F03F0343F080539360654B1B68A3
:102960009B09654AA2FB03239B0901335B0001938A
:10297000019B53B1019B013B0193F9E7FFF7AAFECD
:102980000023A36584F85030D0E72268936813F0E1
:10299000805F40F08480636D43F010036365A36D36
:1029A00043F00103A3650120936813F0040300D0F2
:1029B0000123616D11F0100F40F09380002B40F067
:1029C0009080636D23F4817343F002036365936821
:1029D00013F0010F16D1494B9A6802F0010203F57A
:1029E00080739B6803F001031343454A926802F029
:1029F0000102134306D1636842498A6822F47C12BB
:102A000013438B60627E636B43EA4233E268134395
:102A1000A268134394F8202043EA0243012A40D0DD
:102A2000A26A22B102F47072E16A0A431343216878
:102A3000CD68354A2A401343CB6021688B6813F078
:102A4000040300D001238A6812F0080200D001229A
:102A5000B3B9AAB9227E94F830305B0043EA8232DF
:102A6000CB6823F4804323F002031343CB6094F834
:102A70003830012B1AD02268136923F00103136147
:102A80002369012B24D02268136B23F00F031363F7
:102A9000636D23F0030343F00103636526E0002028
:102AA00082E7626A013A43EA4243B9E721680B6967
:102AB00023F4FF6323F00403E26B256C2A43656C67
:102AC0002A43A56C2A43134343F001030B61D7E764
:102AD00021680B6B23F00F03E269013A13430B6388
:102AE000D6E7636D43F010036365012003B030BD8A
:102AF0000120FBE764000020632D3E050000045028
:102B0000000204500003045007C0F0FF2DE9F0411B
:102B1000404B9F6807F01F074669082E11D057B138
:102B2000052F08D0092F06D03A4B9B6813F4604F4D
:102B30002ED1042605E00368DB6813F0010F21D1D4
:102B400004260D460446FFF7CDFE804623681A682A
:102B5000324223D1B5F1FF3FF8D0FFF7C3FEA0EB1F
:102B60000800A84201D8002DF0D123681B68334229
:102B7000ECD1636D43F004036365002384F85030A7
:102B8000032042E0436D43F02003436501203CE015
:102B9000436D43F020034365012036E0626D42F44B
:102BA00000726265DA6812F4406F11D1627E7AB900
:102BB0001A6812F0080F0BD0626D22F48072626501
:102BC000626D12F4805F03D1626D42F001026265B2
:102BD000114A934209D01A46934209D047B1052FB2
:102BE00006D0092F04D0D26803E0A2F58072F3E783
:102BF000DA68082E06D012F4804F08D10C221A6031
:102C0000002002E008221A600020BDE8F0810020C8
:102C1000FBE700BF00030450000104500368186C78
:102C200070470000F0B482B00022019290F850206A
:102C3000012A00F036820346012280F85020026803
:102C4000926812F0040F0AD0426D42F020024265F1
:102C50000120002283F8502002B0F0BC70474A687F
:102C6000052A09D8023A032A00F28E80DFE802F032
:102C7000028285880C224A601E684D680C683036D6
:102C80002A0A920002F00C02B05805F01F051F2717
:102C9000AF4020EA0700C4F38464AC402043B05046
:102CA0001C68A26812F0040200D00122A06810F093
:102CB000080000D0012052BB48BB0E688D68143458
:102CC000720E920002F00402A058C6F304560727C1
:102CD000B74020EA0700B5402843A0504C69186867
:102CE000C268C2F3C102520004FA02F20D69042D57
:102CF0004DD00E68603050F82570AC4C3C4006F06A
:102D0000F8463243144344F0004440F82540186824
:102D1000826812F0010F16D10A68CD68D0F8B04071
:102D2000C2F3120624EA060405F01806A04DF54089
:102D30002A40C2F312022243C0F8B020C8689D4A5C
:102D4000904200F08B800A689B490A4200F0A581FE
:102D50009A49896801F0E0749948824200F04781FD
:102D60009848824200F06E819748824200F082814A
:102D700000206EE712224A607EE718224A607BE755
:102D80004FF480724A6077E706224A6074E7026E69
:102D9000046EC4F384640A68C2F312057DBBC2F3F7
:102DA0008462944233D01C68626E606EC0F38460AB
:102DB0000A68C2F312057DBBC2F38462904233D02D
:102DC0001C68A26EA06EC0F384600A68C2F312058C
:102DD0007DBBC2F38462904233D01C68E26EE06E29
:102DE000C0F384600A68C2F312057DBBC2F384623B
:102DF00090428CD1E26E22F00042E26687E792FABE
:102E0000A2F212B1B2FA82F2CBE72022C9E7026E37
:102E100022F000420266C6E792FAA2F212B1B2FABA
:102E200082F2CBE72022C9E7626E22F0004262669E
:102E3000C6E792FAA2F212B1B2FA82F2CBE72022EE
:102E4000C9E7A26E22F00042A266C6E792FAA2F299
:102E500012B1B2FA82F2CBE72022C9E71D680A68F4
:102E6000C2F31206002E35D1900E013000F01F0083
:102E700009288CBF00200120002862D0002E38D104
:102E8000940E0134A40604F0F844002E3DD1900EB7
:102E9000013000F01F070120B8400443002E42D14A
:102EA000920E013202F01F0202EB4202120522438F
:102EB0008C681435500E800000F004002E58C2F3C8
:102EC00004520727974026EA070604FA02F2324323
:102ED0002A5038E792FAA2F048B1B0FA80F00130F7
:102EE00000F01F0009288CBF00200120C4E720202B
:102EF000F5E792FAA2F434B1B4FA84F40134A406EA
:102F000004F0F844C1E72024F8E792FAA2F040B1B7
:102F1000B0FA80F0013000F01F00012707FA00F03E
:102F2000BBE72020F6E792FAA2F242B1B2FA82F2AF
:102F3000013202F01F0202EB42021205B7E7202223
:102F4000F6E7CEB9940E0134A40604F0F844FEB9B5
:102F5000900E013000F01F070120B8400443AEBBC3
:102F6000900E013000F01F0000EB40021E3A1205E7
:102F700042F0007222439BE792FAA2F434B1B4FA11
:102F800084F40134A40604F0F844E0E72024F8E7D0
:102F900092FAA2F040B1B0FA80F0013000F01F00C8
:102FA000012707FA00F0D9E72020F6E700F0FF0339
:102FB000FFFF070000007F4000000880000304506E
:102FC000000052C7000084CB0100008092FAA2F2F8
:102FD0005AB1B2FA82F0013000F01F0000EB40025B
:102FE0001E3A120542F00072C4E72020F3E711F404
:102FF000000F7FF4B5AE1A682B498A4205D001F55F
:1030000000718A4201D0002023E644F400042749DD
:103010008A6822F0E07214438C60254A1268920993
:103020002449A1FB02129209013202EB42029100F3
:10303000019102E0019A013A0192019A002AF9D124
:10304000002006E611F0807F7FF48EAE1A681649E4
:103050008A4205D001F500718A4201D00020F8E5CE
:1030600044F080721148816821F0E0710A43826067
:103070000020EEE511F4800F11D119680A4A91423F
:1030800001D00020E5E544F480020848816821F081
:10309000E0710A4382600020DBE50020D9E50020D2
:1030A000D7E50220D8E500BF00000450000304501B
:1030B00064000020632D3E0530B583B000230193EA
:1030C00003689A6812F0010F57D199682C4A11428F
:1030D0001ED19A6822F0004222F03F0242F0010223
:1030E0009A60284B9B6813F4000F1BD0264B1B687B
:1030F0009B09264AA2FB03239B09013303EB4303ED
:103100009A000192019B6BB1019B013B0193F9E78E
:10311000436D43F010034365836D43F00103836502
:1031200001202BE00446FFF7DDFB054623681A6803
:1031300012F0010F1FD19A6812F0010F07D19A689F
:1031400022F0004222F03F0242F001029A60FFF7B3
:10315000C9FB401B0228E9D923681B6813F0010F43
:10316000E4D1636D43F010036365A36D43F0010385
:10317000A365012002E0002000E0002003B030BD84
:103180003F0000800003045064000020632D3E05D2
:1031900038B53C4B9D6803689B6813F0040F6BD1F6
:1031A00005F01F0590F85030012B68D0044601232C
:1031B00080F85030FFF780FF0346002858D1626D39
:1031C00022F4706222F0010242F480726265226889
:1031D0002D498A4230D011468A4200D01DB9626D15
:1031E00022F480126265626D12F4805F27D0A26DB6
:1031F00022F00602A26522681C211160002284F8D8
:1032000050202168204A91421CD00A4691421CD08D
:10321000DDB1052D19D0092D17D0616D41F4801154
:103220006165D26812F0007F27D0626D22F44052AF
:1032300042F48052626520E0A1F58071CCE7002263
:10324000A265D8E7A2F58072E0E7CA6812F0007FB5
:1032500005D0626D22F4405242F4805262658A6861
:1032600022F0004222F03F0242F004028A6004E0B1
:10327000002284F8502000E00223184638BD0223C3
:10328000FBE700BF000304500001045090F85020F9
:10329000012A00F0818030B49AB00346012280F800
:1032A000502000221692179200683C4A904239D072
:1032B00000220192019A002A38D0926812F004028A
:1032C00000D00122806810F0040F56D1002A54D19A
:1032D0000A68002A33D0324CA26822F4604248685F
:1032E00093F8305040EA45300243A2602B4A906880
:1032F00000F0010002F58072926802F001020243C0
:103300002848806800F00100024341D1A26822F4FD
:10331000716222F00F020868896808430243A260C4
:1033200000202FE002F580720192C3E75A6D42F04F
:1033300020025A65002283F85020012025E0184918
:103340008A6822F460428A60144A916801F001019F
:1033500002F58072926802F001020A4311498968FD
:1033600001F001010A4315D10D498A6822F4716206
:1033700022F00F028A60002004E05A6D42F0200221
:103380005A650120002283F850201AB030BC7047E3
:103390000020F7E70020F5E7022070470000045006
:1033A0000003045000020450074AD36823F4E0638A
:1033B0001B041B0C000200F4E060184340F0BF60E7
:1033C00040F40030D060704700ED00E030B4174B9F
:1033D000DB68C3F30223C3F10704042C28BF0424D1
:1033E0001D1D062D01D9033B00E000234FF0FF35E2
:1033F00005FA04F421EA0401994005FA03F322EAEC
:1034000003031943002809DB0901C9B200F1604038
:1034100000F5614080F8001330BC704700F00F00E9
:103420000901C9B2024B1954F6E700BF00ED00E0F4
:1034300014ED00E00138B0F1807F0AD2064B5860ED
:10344000064AF02182F823100020986007221A60B3
:1034500070470120704700BF10E000E000ED00E081
:10346000F0B482B0002364E086685F000325BD40AD
:1034700026EA0506CD68BD4035438560466826EAE4
:1034800004064D68C5F300159D40354345605EE078
:10349000C66A26EA0406C5F3C0049C403443C462ED
:1034A0005AE0DD08083550F8257003F00704A6003F
:1034B0000F24B44027EA04070C69B4403C4340F8A9
:1034C00025405DE0062400E00024B4403C43023582
:1034D000544E46F82540544CA568D44304EA0506EA
:1034E0004F6817F4801F01D042EA05064E4DAE60CA
:1034F000ED6804EA05064F6817F4001F01D042EAA0
:103500000506494DEE606D6804EA05064F6817F43C
:10351000003F01D042EA0506434D6E602D682C4005
:103520004E6816F4803F01D042EA05043E4A14601A
:1035300001330A6832FA03F470D001249C4022401F
:10354000F6D04D6805F00305013D012D8CD94D687D
:1035500005F00306032E9BD04C6804F00304032CF3
:1035600009D0C5685E000324B44025EA04058C68D0
:10357000B4402C43C4604C6804F00304022C90D087
:1035800005685E000324B44025EA04054C6804F095
:103590000304B4402C4304604C6814F4403FC7D08B
:1035A000224C256E45F001052566246E04F00104C9
:1035B0000194019C9D08AE1C1A4C54F8267003F02F
:1035C0000304A6000F24B44027EA0407B0F1904F8B
:1035D0003FF47AAF164CA04216D004F58064A042A6
:1035E00014D004F58064A04212D004F58064A04297
:1035F00010D004F58064A0420ED004F58064A0428F
:103600003FF460AF072460E701245EE702245CE733
:1036100003245AE7042458E7052456E702B0F0BC17
:10362000704700BF0000014000040140001002404C
:10363000000400480AB18161704781627047000050
:10364000024B186800F4C060704700BF0070004073
:10365000B0F5007F0FD01E4B1B6803F4C063B3F5B9
:10366000806F33D01A4A136823F4C06343F4806335
:10367000136000207047164B1B6803F4C063B3F55A
:10368000007F1FD0124A136823F4C06343F4007311
:103690001360104B1A68322303FB02F30E4AA2FB9D
:1036A00003239B0C01330A4A526912F4806F02D043
:1036B0000BB1013BF7E7064B5B6913F4806F03D155
:1036C000002070470020704703207047002070479B
:1036D000007000406400002083DE1B4330B583B0DF
:1036E0000546204B9B6D13F0805F0BD0FFF7A8FFC2
:1036F000B0F5007F17D0802D1FD82DD0702D2DD084
:1037000000211BE0174CA36D43F08053A365A36D0C
:1037100003F080530193019BFFF792FFA36D23F009
:103720008053A365E4E7802D03D9A02D03D902219E
:1037300004E0002102E0012100E003210A4A1368AD
:1037400023F007030B431360136803F007038B4256
:1037500006D1002003B030BD0221EFE70121EDE7E3
:103760000120F7E70010024000200240284A936839
:10377000D26802F0030213F00C030AD00C2B06D01F
:10378000042B1FD0082B20D00020024610E0012A75
:10379000F6D11F4A126812F0080F0CD11C4AD2F859
:1037A0009420C2F303221B4951F8222043B1002088
:1037B0000C2B0DD07047164A1268C2F30312F2E7C1
:1037C0001046F5E714480022F2E714480022EFE71C
:1037D0000F4BDB6803F00303022B15D0032B15D02E
:1037E0000B4BD868C0F302100130D968C1F3062131
:1037F00002FB01F2B2FBF0F2D868C0F34160013085
:103800004000B2FBF0F0D5E7034AE9E7034AE7E7F7
:1038100000100240A44E00080024F40000127A00B8
:10382000002800F0F682F0B583B00446AF4B9D68E7
:1038300005F00C05DE6806F00306036813F0100FB0
:103840005BD0E5B10C2D18D0A369002B00F0BC8033
:10385000A64A136843F001031360FFF743F80746D5
:10386000A24B1B6813F0020F40F09B80FFF73AF861
:10387000C01B0228F4D90323D7E2012EE4D19B4BCD
:103880001B6813F0020F03D0A369002B00F0C48261
:10389000206A964B1B6813F0080F5CD0934B1B6893
:1038A00003F0F00398425DD8904B1A6842F008028A
:1038B0001A601A6822F0F002216A0A431A605A68F4
:1038C00022F47F42E16942EA01225A60002D61D070
:1038D000FFF74CFF854B9B68C3F30313844AD35C0B
:1038E00003F01F03D840834B1860834B1868FEF722
:1038F000AFFF0346002840F09882236813F0010FC1
:1039000000F08180082D75D00C2D71D06368B3F55F
:10391000803F00F09780B3F5A02F00F09980734BA3
:103920001A6822F480321A601A6822F480221A601F
:103930006368002B00F09980FEF7D4FF07466B4BBD
:103940001B6813F4003F5ED1FEF7CCFFC01B642858
:10395000F5D9032369E2654BD3F894301B0903F0D2
:10396000F0039FE7FFF7BAFE002840F057825F4B55
:103970001A6842F008021A601A6822F0F002216AFE
:103980000A431A605A6822F47F42E16942EA01223E
:103990005A609DE7206AFFF7A1FE002898D0012316
:1039A00043E2524B1A6842F008021A601A6822F089
:1039B000F002216A0A431A605A6822F47F42E169E0
:1039C00042EA01225A6098E7484A136823F001034B
:1039D0001360FEF787FF0746444B1B6813F0020F86
:1039E0008BD0FEF77FFFC01B0228F5D903231CE212
:1039F000032E8BD13D4B1B6813F4003F03D063684B
:103A0000002B00F00D82236813F0020F4FD0042D1D
:103A10003CD00C2D38D0E368002B78D0334A1368A3
:103A200043F480731360FEF75DFF06462F4B1B685F
:103A300013F4806F62D1FEF755FF801B0228F5D981
:103A40000323F2E1294A136843F4803313606FE7DC
:103A500003F18043A3F53C331A6842F480221A60D4
:103A60001A6842F480321A6062E7FEF73BFF0746AD
:103A70001E4B1B6813F4003FC5D0FEF733FFC01B7D
:103A80006428F5D90323D0E1022EC4D1174B1B685B
:103A900013F4806F03D0E368002B00F0C381134A56
:103AA000536823F0F853216943EA016353602368A4
:103AB00013F0080F56D06369002B3CD00B4AD2F8A4
:103AC000943043F00103C2F89430FEF70BFF064632
:103AD000064BD3F8943013F0020F43D1FEF702FFE8
:103AE000801B0228F4D903239FE100BF001002408D
:103AF0008C4E0008640000206C000020B14A53681E
:103B000023F0F853216943EA01635360CFE7AD4ADC
:103B1000136823F480731360FEF7E4FE0646A94B96
:103B20001B6813F4806FC2D0FEF7DCFE801B0228F6
:103B3000F5D9032379E1A34AD2F8943023F00103A5
:103B4000C2F89430FEF7CEFE06469E4BD3F8943072
:103B500013F0020F06D0FEF7C5FE801B0228F4D931
:103B6000032362E1236813F0040F7AD0954B9B6D19
:103B700013F0805F36D1934B9A6D42F080529A6574
:103B80009B6D03F080530193019B01268E4B1B68B4
:103B900013F4807F28D0A368012B39D0052B3FD0A8
:103BA000884BD3F8902022F00102C3F89020D3F87C
:103BB000902022F00402C3F89020A368002B3DD08F
:103BC000FEF790FE07467F4BD3F8903013F0020FBC
:103BD00046D1FEF787FEC01B41F288339842F2D9E6
:103BE000032322E10026D1E7774A136843F4807368
:103BF0001360FEF777FE0746734B1B6813F4807F54
:103C0000C9D1FEF76FFEC01B0228F5D903230CE1D2
:103C10006C4AD2F8903043F00103C2F89030CCE700
:103C2000684BD3F8902042F00402C3F89020D3F8F8
:103C3000902042F00102C3F89020BEE7FEF752FE4A
:103C40000746604BD3F8903013F0020F08D0FEF710
:103C500049FEC01B41F288339842F2D90323E4E0C5
:103C6000EEB9A36A002B00F0DF80022B1DD00C2DD3
:103C700000F0E280534A136823F080731360FEF76C
:103C800031FE04464F4B1B6813F0007F00F0BA80F2
:103C9000FEF728FE001B0228F4D90323C5E0494A99
:103CA000936D23F080539365DBE7464BDB6803F0AD
:103CB0000301E26A91420FD00C2D00F0B980414B14
:103CC0001B6813F0806F40F0B5803E4B1B6813F00B
:103CD000805F2DD00123A8E003F07002216B013931
:103CE000B2EB011FE8D103F4FE42616BB2EB012F8E
:103CF000E2D103F40031A26B073A18BF01229142CE
:103D0000DAD103F4C001E26B5208013AB1EB425F31
:103D1000D2D103F0C063226C5208013AB3EB426F78
:103D2000CAD1284B1B6813F0007F51D000237CE0E0
:103D3000244A136823F080731360FEF7D3FD054611
:103D4000204B1B6813F0007F06D0FEF7CBFD401B15
:103D50000228F5D9032368E01A4AD3681B491940A1
:103D6000E36A206B013843EA0013606B43EA0023E7
:103D7000E06B4008013843EA4053206C40080138AA
:103D800043EA4063A06B000943EA40430B43D3601E
:103D9000136843F080731360D36843F08073D3607B
:103DA000FEF7A0FD0446074B1B6813F0007F06D109
:103DB000FEF798FD001B0228F5D9032335E0002308
:103DC00033E000BF00100240007000408C809DF97D
:103DD0001A4B1A6842F080721A60DA6842F08072F8
:103DE000DA60FEF77FFD0446144B1B6813F0007F7A
:103DF00006D1FEF777FD001B0228F5D9032314E056
:103E0000002312E00D4AD1680D4B0B40D360002314
:103E10000BE0012318467047012306E0012304E06C
:103E2000012302E0012300E00023184603B0F0BDA7
:103E30000123FAE70123F8E70123F6E70010024027
:103E4000FCFFEEFE002800F0AF8070B504465A4B30
:103E50001B6803F007038B420BD2574A136823F009
:103E600007030B431360136803F007038B4240F012
:103E70009D80236813F0020F0CD0A2684F4B9B6803
:103E800003F0F0039A4205D94C48836823F0F0030D
:103E90001A4382600D46236813F0010F39D063681E
:103EA000032B09D0022B26D063BB444A126812F0C0
:103EB000020F06D1012076E0404A126812F0007F1E
:103EC00076D03E498A6822F0030213438B60FEF7E6
:103ED00009FD0646394B9B6803F00C036268B3EB9F
:103EE000820F16D0FEF7FEFC801B41F28833984209
:103EF000F0D9032057E0314A126812F4003FE0D1B4
:103F0000012050E02D4A126812F4806FD9D10120AF
:103F100049E0236813F0020F0CD0A268274B9B687E
:103F200003F0F0039A4205D224498B6823F0F00392
:103F30001A438A60204B1B6803F00703AB420AD97F
:103F40001D4A136823F007032B431360136803F023
:103F50000703AB422ED1236813F0040F06D0174A93
:103F6000936823F4E063E1680B439360236813F0E4
:103F7000080F07D0114A936823F46053216943EA7C
:103F8000C1039360FFF7F2FB0C4B9B68C3F3031371
:103F90000B4AD35C03F01F03D8400A4B18600A4B4E
:103FA0001868FEF755FC70BD012070470120FAE744
:103FB0000120F8E70120F6E700200240001002404F
:103FC0008C4E0008640000206C000020014B186833
:103FD000704700BF6400002008B5FFF7F7FF054BEE
:103FE0009B68C3F30223044AD35C03F01F03D84049
:103FF00008BD00BF001002409C4E000808B5FFF746
:10400000E5FF054B9B68C3F3C223044AD35C03F06E
:104010001F03D84008BD00BF001002409C4E00089E
:10402000F8B55A4BDB6813F0030F18D0574BDB6819
:1040300003F003030268934202D001242046F8BD36
:10404000002A00F0A080514BDB68C3F30213013358
:104050004268934201D00124F0E7002409E003689C
:10406000022B59D0032B5ED0012B44D00124002C0D
:10407000E4D10F460646454A136823F08063136077
:10408000FEF730FC0546414B1B6813F0006F05D06E
:10409000FEF728FC401B0228F5D90324002CCDD1C3
:1040A000002F4ED139490B6923F41F3323F4407399
:1040B000B068F2681209520442EA002213430B610D
:1040C000324A136843F080631360FEF70BFC054629
:1040D0002E4B1B6813F0006F05D1FEF703FC401B4D
:1040E0000228F5D90324002CA8D1284A1369B16904
:1040F0000B431361A2E7254A126812F0020F1ED08B
:10410000224DEA6822F073024468013C43EA04133A
:104110001343EB600024AAE71C4A126812F4806F74
:10412000EED10124A3E7194A126812F4003FE7D147
:10413000164A126812F4802FE2D1012497E7012475
:1041400095E7012F0FD01148026922F0C06222F4D6
:10415000FE42B16873695B08013B5B0643EA0123D9
:1041600013430361ACE70948026922F4C00222F458
:10417000FE42B16833695B08013B5B0543EA0123FA
:10418000134303619CE7012458E700BF001002407D
:10419000F8B5514BDB6813F0030F18D04E4BDB68BA
:1041A00003F003030268934202D001242046F8BDC5
:1041B000002A00F08E80484BDB68C3F30213013302
:1041C0004268934201D00124F0E7002409E003682B
:1041D000022B59D0032B5ED0012B44D00124002C9C
:1041E000E4D10F4606463C4A136823F0805313601F
:1041F000FEF778FB0546384B1B6813F0005F05D0CF
:10420000FEF770FB401B0228F5D90324002CCDD10A
:10421000002F4ED130494B6923F41F3323F44073F0
:10422000B068F2681209520442EA002213434B615B
:10423000294A136843F080531360FEF753FB054689
:10424000254B1B6813F0005F05D1FEF74BFB401BAD
:104250000228F5D90324002CA8D11F4A536971699B
:104260000B435361A2E71C4A126812F0020F1ED0E2
:10427000194DEA6822F073024468013C43EA0413D2
:104280001343EB600024AAE7134A126812F4806F0C
:10429000EED10124A3E7104A126812F4003FE7D1DF
:1042A0000D4A126812F4802FE2D1012497E701240D
:1042B00095E70948426922F0C06222F4FE42B168E3
:1042C00033695B08013B5B0643EA01231343436107
:1042D000AEE701246AE700BF001002402DE9F0417B
:1042E00082B00446036813F4006F33D0436EB3F515
:1042F000800F29D011D9B3F5000F1ED0B3F5400FB0
:1043000018D10027664AD2F8883023F44003616E42
:104310000B43C2F8883000261EE043B90021043068
:10432000FFF77EFE0746002FECD03E4614E0012644
:10433000374611E0012637460EE0594AD36843F468
:104340008033D3600027DDE700212030FFF720FF16
:104350000746E8E700263746236813F4805F15D048
:10436000A36EB3F1807F7DD069D9B3F1007F73D0A4
:10437000B3F1407F6DD1002F7BD1494AD2F888300C
:1043800023F04073A16E0B43C2F88830236813F406
:10439000003F00F08E80424B9B6D13F0805F6AD12E
:1043A0003F4B9A6D42F080529A659B6D03F08053AB
:1043B0000193019B4FF001083A4A136843F480735C
:1043C0001360FEF78FFA0546364B1B6813F4807FA7
:1043D00005D1FEF787FA401B0228F5D90327002FE5
:1043E00062D12F4BD3F8903013F4407316D0D4F829
:1043F00084209A4212D02A4AD2F8903023F4407393
:10440000D2F8901041F48031C2F89010D2F8901098
:1044100021F48031C2F89010C2F8903013F0010FEF
:104420002CD1002F40F043811D4AD2F8903023F464
:104430004073D4F884100B43C2F8903035E02BB9A8
:104440000021201DFFF7ECFD074694E701263746C3
:104450009CE70126374699E7114AD36843F4803335
:10446000D36088E7002104F12000FFF791FE0746A2
:1044700081E73E468AE74FF000089DE7FEF732FAF3
:104480000546074BD3F8903013F0020FC9D1FEF761
:1044900029FA401B41F288339842F2D90327C0E73A
:1044A00000100240007000403E46B8F1000F40F09E
:1044B0000081236813F0010F08D09D4AD2F888309C
:1044C00023F00303A16B0B43C2F88830236813F079
:1044D000020F08D0964AD2F8883023F00C03E16B23
:1044E0000B43C2F88830236813F0040F08D0904AB9
:1044F000D2F8883023F03003216C0B43C2F88830A7
:10450000236813F0080F08D0894AD2F8883023F0C6
:10451000C003616C0B43C2F88830236813F0100F9E
:1045200008D0834AD2F8883023F44073A16C0B433F
:10453000C2F88830236813F0200F08D07C4AD2F8E4
:10454000883023F44063E16C0B43C2F88830236861
:1045500013F4007F08D0764AD2F8883023F4402341
:10456000E16D0B43C2F88830236813F4806F08D0E4
:104570006F4AD2F8883023F44013216E0B43C2F8FF
:104580008830236813F0400F08D0694AD2F8883089
:1045900023F44053216D0B43C2F88830236813F095
:1045A000800F08D0624AD2F8883023F44043616D0E
:1045B0000B43C2F88830236813F4807F08D05C4A2C
:1045C000D2F8883023F44033A16D0B43C2F8883011
:1045D000236813F4005F0FD0554AD2F8883023F0D7
:1045E0004063E16E0B43C2F88830E36EB3F1006FB5
:1045F00065D0B3F1806F67D0236813F4002F0FD01C
:104600004B4AD2F8883023F04063216F0B43C2F845
:104610008830236FB3F1006F5ED0B3F1806F60D04C
:10462000236813F4802F0FD0414AD2F8883023F04A
:104630004063616F0B43C2F88830636FB3F1006F62
:1046400057D0B3F1806F59D0236813F4804F0FD047
:10465000374AD2F8883023F04053A16F0B43C2F899
:104660008830A36FB3F1805F50D0B3F1005F55D0B5
:10467000236813F4004F08D02D4AD2F8883023F075
:104680008043E16F0B43C2F88830236813F4803F06
:1046900009D0274AD2F8883023F00043D4F880109C
:1046A0000B43C2F88830304602B0BDE8F0813E4688
:1046B000FBE61F4A936D23F080539365F9E6D368B8
:1046C00043F48013D36097E70121201DFFF7A8FC76
:1046D000002891D006468FE7D36843F48013D36057
:1046E0009EE70121201DFFF79BFC002898D006467D
:1046F00096E7D36843F48013D360A5E70121201D1A
:10470000FFF78EFC00289FD006469DE70221201D62
:10471000FFF786FC0028ABD00646A9E7022104F18A
:104720002000FFF735FD0028A2D00646A0E700BF15
:10473000001002402DE9D8480446016883680269E8
:10474000134342691343C269134308688F4A024006
:1047500013430B602268536823F44053E1680B4312
:104760005360A16922688A4B9A4201D0236A194397
:10477000936823F430630B4393602368854A934224
:1047800011D0854A934222D0844A934238D0844A39
:10479000934260D0834A934273D07D4A934200F0A3
:1047A000898010223FE002F55842D2F8882002F0BA
:1047B0000302032A09D8DFE802F002049606012268
:1047C00031E004222FE008222DE010222BE002F538
:1047D000E632D2F8882002F00C020C2A0ED8DFE86C
:1047E00002F0070D0D0D090D0D0D840D0D0D0B00C3
:1047F000002218E0042216E0082214E0102212E041
:1048000002F5E432D2F8882002F03002102A6ED08D
:1048100005D9202A6DD0302A1BD1082203E00AB91D
:10482000002200E010225A498B4270D0E069B0F5B6
:10483000004F00F09F80082A00F20A81DFE812F0A2
:10484000DA00F100D8000801F400080108010801AD
:10485000F7001022E7E702F5E232D2F8882002F0F2
:10486000C002402A47D005D9802A46D0C02A06D1A6
:104870000822D8E70AB90022D5E71022D3E7102290
:10488000D1E702F5E032D2F8882002F44072B2F5A6
:10489000807F34D007D9B2F5007F32D0B2F5407FA7
:1048A00006D10822BFE70AB90022BCE71022BAE706
:1048B0001022B8E702F5C832D2F8882002F440622C
:1048C000B2F5806F1FD007D9B2F5006F1DD0B2F5D9
:1048D000406F06D10822A6E70AB90022A3E71022FA
:1048E000A1E710229FE702229DE702229BE7042214
:1048F00099E7022297E7042295E7022293E7042230
:1049000091E702228FE704228DE702228BE7082A33
:1049100000F29080DFE802F0088E108E0D8E8E8EF1
:1049200005004FF4004008E0FFF756FB28B90020CF
:1049300072E0FEF71BFFF9E71B48626802EB4203D7
:10494000834279D8B0EB023F78D80023070E0602E5
:10495000500816EB000B47F1000C58466146FDF776
:10496000E3FBA0F54072114B9A4269D82368D860E6
:10497000002051E0082A65D8DFE802F01A34056407
:10498000376464641E00084816E000BFF369FFEF57
:1049900000800040003801400044004000480040D2
:1049A000004C0040005000400024F400FFFC0F00C9
:1049B000FFF712FB002847D06268530803EB400062
:1049C000B0FBF2F0A0F110024FF6EF739A423DD81F
:1049D00083B223F00F03C0F3420018432368D8606A
:1049E000002019E0FFF70AFBE4E7FEF7BFFEE1E76E
:1049F0001A4802E0FFF7F0FA60B3636800EB530077
:104A0000B0FBF3F0A0F110024FF6EF739A4223D8F7
:104A1000236880B2D860002000236366A366BDE8E7
:104A2000D888FFF7EBFAE7E7FEF7A0FEE4E74FF4DC
:104A30000040E2E70120EFE70120EDE70120EBE78E
:104A40000120E9E70120E7E70020E5E70120E3E7AF
:104A50000120E1E70020DFE70120DDE70024F4008A
:104A6000436A13F0010F06D00268536823F4003341
:104A7000816A0B435360436A13F0020F06D0026849
:104A8000536823F48033C16A0B435360436A13F0C5
:104A9000040F06D00268536823F48023016B0B4394
:104AA0005360436A13F0080F06D00268536823F47A
:104AB0000043416B0B435360436A13F0100F06D061
:104AC0000268936823F48053816B0B439360436ABD
:104AD00013F0200F06D00268936823F40053C16BD3
:104AE0000B439360436A13F0400F0AD00268536887
:104AF00023F48013016C0B435360036CB3F5801FE8
:104B00000BD0436A13F0800F06D00268536823F479
:104B10000023816C0B43536070470268536823F491
:104B2000C003416C0B435360EBE72DE9F0410446B1
:104B30000F4616469846069D2368DB6937EA03034D
:104B40000CBF01230023B34251D1B5F1FF3FF3D095
:104B5000FDF7C8FEA0EB0800A8422BD855B3236888
:104B60001A6812F0040FE7D0DA6912F4006FE3D08C
:104B70004FF400621A62226852E8003F23F4D073B7
:104B800042E800310029F6D1226802F1080353E817
:104B9000003F23F00103083242E800310029F3D13D
:104BA0002023A367E367C4F88030002384F87430BF
:104BB00003201DE0226852E8003F23F4D07342E84E
:104BC00000310029F6D1226802F1080353E8003FC2
:104BD00023F00103083242E800310029F3D12023F9
:104BE000A367E367002384F87430032000E000200B
:104BF000BDE8F0812DE9F04182B01E46836F202B85
:104C000056D104460D469046002956D0002A56D06B
:104C100090F87430012B54D0012380F874300023B5
:104C2000C0F8803021238367FDF75CFE0746A4F8B7
:104C30005080A4F85280A368B3F5805F05D04FF090
:104C40000008002384F8743013E0236913B14FF097
:104C50000008F6E7A8460025F3E738F8023B22688B
:104C6000C3F308031385B4F85230013B9BB2A4F898
:104C70005230B4F852309BB273B100963B460022DA
:104C800080212046FFF751FFE8B9002DE5D02368C9
:104C900015F8012B1A85E6E700963B4600224021D5
:104CA0002046FFF742FF034678B92022A26700E0C2
:104CB0000223184602B0BDE8F0810123F9E7012381
:104CC000F7E70223F5E70323F3E70323F1E730B522
:104CD00083B004460023C0F88030FDF703FE05468C
:104CE00023681B6813F0080F0DD123681B6813F0AD
:104CF000040F16D12023A367E3670020206684F801
:104D0000740003B030BD6FF07E4300930346002271
:104D10004FF400112046FFF708FF0028E5D00320DC
:104D2000EFE76FF07E4300932B4600224FF48001A3
:104D30002046FFF7FAFE0028DCD00320E1E768B345
:104D400010B50446836F03B32423A3672268136856
:104D500023F0010313602046FFF7ECFC012813D079
:104D6000636ABBB92268536823F490435360226896
:104D7000936823F02A0393602268136843F00103C9
:104D800013602046FFF7A3FF10BD80F87430FDF7D5
:104D900005FDD9E72046FFF763FEE3E701207047F2
:104DA000DFF834D0FDF74AFD0C480D490D4A0023C9
:104DB00002E0D458C4500433C4188C42F9D30A4AD0
:104DC0000A4C002301E013600432A242FBD3FBF73C
:104DD0003BFAFDF723FCFEE70080012000000020E5
:104DE00070000020284F000870000020880100207B
:104DF000FEE70000F8B500BFF8BC08BC9E4670474F
:104E0000F8B500BFF8BC08BC9E4670470000000023
:104E1000040000200000000000000000000000006E
:104E20000000000000000000000000000000000082
:104E30000000000000000000000000000000000072
:104E40000000000000000000000000000000000062
:104E50000000000000000000000000000000000052
:104E60000000000000000000000000000000000042
:104E7000000000004D616D793A2025750D0A000093
:104E8000414443203D20256C750A000000000000CD
:104E900000000000010203040607080900000000EA
:104EA00001020304A0860100400D0300801A0600E1
:104EB00000350C0040420F0080841E0000093D00B8
:104EC00000127A000024F40000366E010048E80168
:104ED000006CDC02232D302B20000000686C4C009D
:104EE0006566674546470000303132333435363722
:104EF00038394142434445460000000030313233E6
:104F00003435363738396162636465660000000005
:084F100048D2FF7F0100000000
:084F180029020008000000005E
:084F200001020008000000007E
:104F28000400002000000000544E0008344E000821
:104F3800144E0008000000000000000000000000FF
:104F48000000000000000000000000000000000059
:104F58000000000000000000000000000000000049
:104F68000000000000000000000000000000000039
:104F78000000000000000000000000000000000029
:104F88000000000000093D000100000010000000C2
:0400000508004DA101
:00000001FF
